:020000040800F2
:10000000000002208D110008A1100008A3100008B4
:10001000A5100008A7100008A910000800000000A3
:10002000000000000000000000000000014800087F
:10003000AB10000800000000A1480008B14400080F
:10004000DD110008DD110008DD110008DD110008D8
:10005000DD110008DD110008AD100008DD110008F9
:10006000DD110008DD110008DD110008DD110008B8
:10007000DD110008DD110008DD110008DD110008A8
:10008000DD110008DD110008DD110008DD11000898
:10009000DD110008DD110008DD110008DD11000888
:1000A000DD110008DD110008DD110008DD11000878
:1000B000DD110008DD110008DD110008DD11000868
:1000C000DD110008DD110008DD110008DD11000858
:1000D000DD110008DD110008DD110008DD11000848
:1000E000DD110008DD110008DD110008DD11000838
:1000F000DD110008B9100008DD110008DD1100084D
:10010000DD110008DD110008DD110008DD11000817
:10011000DD110008DD110008DD110008DD11000807
:10012000C9100008DD110008DD110008DD1100080C
:10013000DD110008DD110008DD110008DD110008E7
:10014000DD110008DD110008DD110008DD110008D7
:10015000DD110008DD110008DD110008DD110008C7
:10016000DD110008DD110008DD110008DD110008B7
:10017000DD110008DD110008DD110008000000009D
:08018000DD110008DD1100088B
:1001900010B5054C237833B9044B13B10448AFF3C1
:1001A00000800123237010BD3C04002000000000EB
:1001B0009868000808B5034B1BB103490348AFF327
:1001C000008008BD0000000040040020986800087E
:1001D00053B94AB9002908BF00281CBF4FF0FF31AE
:1001E0004FF0FF3000F074B9ADF1080C6DE904CEAA
:1001F00000F006F8DDF804E0DDE9022304B0704702
:100200002DE9F047089D04468E46002B4DD18A42C9
:10021000944669D9B2FA82F252B101FA02F3C2F1FC
:10022000200120FA01F10CFA02FC41EA030E94408D
:100230004FEA1C48210CBEFBF8F61FFA8CF708FBAE
:1002400016E341EA034306FB07F199420AD91CEB86
:10025000030306F1FF3080F01F81994240F21C81B8
:10026000023E63445B1AA4B2B3FBF8F008FB103300
:1002700044EA034400FB07F7A7420AD91CEB040435
:1002800000F1FF3380F00A81A74240F20781644405
:10029000023840EA0640E41B00261DB1D44000238A
:1002A000C5E900433146BDE8F0878B4209D9002DEE
:1002B00000F0EF800026C5E9000130463146BDE878
:1002C000F087B3FA83F6002E4AD18B4202D38242E2
:1002D00000F2F980841A61EB030301209E46002D91
:1002E000E0D0C5E9004EDDE702B9FFDEB2FA82F2E6
:1002F000002A40F09280A1EB0C014FEA1C471FFA44
:100300008CFE0126200CB1FBF7F307FB131140EA2A
:1003100001410EFB03F0884208D91CEB010103F1F7
:10032000FF3802D2884200F2CB804346091AA4B2B9
:10033000B1FBF7F007FB101144EA01440EFB00FE8D
:10034000A64508D91CEB040400F1FF3102D2A645F2
:1003500000F2BB800846A4EB0E0440EA03409CE791
:10036000C6F12007B34022FA07FC4CEA030C20FA3E
:1003700007F401FA06F31C43F9404FEA1C4900FA5E
:1003800006F3B1FBF9F8200C1FFA8CFE09FB1811DB
:1003900040EA014108FB0EF0884202FA06F20BD94E
:1003A0001CEB010108F1FF3A80F08880884240F29E
:1003B0008580A8F102086144091AA4B2B1FBF9F0E2
:1003C00009FB101144EA014100FB0EFE8E4508D9DD
:1003D0001CEB010100F1FF346CD28E456AD9023862
:1003E000614440EA0840A0FB0294A1EB0E01A14247
:1003F000C846A64656D353D05DB1B3EB080261EBB5
:100400000E0101FA07F722FA06F3F1401F43C5E98E
:10041000007100263146BDE8F087C2F12003D840C4
:100420000CFA02FC21FA03F3914001434FEA1C4706
:100430001FFA8CFEB3FBF7F007FB10360B0C43EAF8
:10044000064300FB0EF69E4204FA02F408D91CEBA8
:10045000030300F1FF382FD29E422DD902386344A6
:100460009B1B89B2B3FBF7F607FB163341EA034146
:1004700006FB0EF38B4208D91CEB010106F1FF3895
:1004800016D28B4214D9023E6144C91A46EA00468C
:1004900038E72E46284605E70646E3E61846F8E61E
:1004A0004B45A9D2B9EB020864EB0C0E0138A3E767
:1004B0004646EAE7204694E74046D1E7D0467BE748
:1004C000023B614432E7304609E76444023842E7C0
:1004D000704700BF844641EA000313F003036DD167
:1004E000403A41D351F8043B40F8043B51F8043BF7
:1004F00040F8043B51F8043B40F8043B51F8043BFE
:1005000040F8043B51F8043B40F8043B51F8043BED
:1005100040F8043B51F8043B40F8043B51F8043BDD
:1005200040F8043B51F8043B40F8043B51F8043BCD
:1005300040F8043B51F8043B40F8043B51F8043BBD
:1005400040F8043B51F8043B40F8043B51F8043BAD
:1005500040F8043B51F8043B40F8043B51F8043B9D
:1005600040F8043B403ABDD2303211D351F8043B3D
:1005700040F8043B51F8043B40F8043B51F8043B7D
:1005800040F8043B51F8043B40F8043B103AEDD2EC
:100590000C3205D351F8043B40F8043B043AF9D23D
:1005A000043208D0D2071CBF11F8013B00F8013B10
:1005B00001D30B8803806046704700BF082A13D31D
:1005C0008B078DD010F003038AD0C3F10403D21A35
:1005D000DB071CBF11F8013B00F8013B80D331F869
:1005E000023B20F8023B7BE7043AD9D3013A11F8E9
:1005F000013B00F8013BF9D20B7803704B78437054
:100600008B7883706046704700B589B000230593EE
:100610000693079301930293039304932448254A76
:1006200002604FF4803242608360012202610376EF
:1006300080F820304FF08051C1624FF0006181623C
:10064000C3600221C16180F83020436101F0D8FD10
:1006500008BB072305934FF4004306930023079339
:1006600005A9134801F0A0FFC0B90023019301239D
:100670000293039301A90E4801F0F0FD88B901230C
:1006800001930223029301A9094801F0E7FD58B93B
:1006900009B05DF804FB00F05DFBDAE700F05AFBFF
:1006A000E3E700F057FBEAE700F054FBF0E700BF98
:1006B000580400200020014000B585B000230093BD
:1006C0000193029303931A481A4A02604FF480324E
:1006D0004260836001220261037680F82030C360AB
:1006E0000221C16180F83020436101F089FDA8B981
:1006F0000223009301230193029369460C4801F001
:10070000ADFD70B9032300930223019369460848A5
:1007100001F0A4FD40B905B05DF804FB00F01AFB40
:10072000E6E700F017FBEDE700F014FBF3E700BF8E
:10073000A00400200021014030B58BB000230593B8
:1007400006930793089309930368324A934204D0AF
:10075000314A93423FD00BB030BD0446002501958D
:100760002E4B5A6C42F480725A645A6C02F48072B6
:100770000192019A02951A6B42F001021A631B6BF7
:1007800003F001030293029B03230593069305A93B
:10079000234802F06FFB2348234B036045608560CC
:1007A000C5604FF4806303614FF4805343614FF49D
:1007B000804383614FF48073C3614FF480330362DD
:1007C000456201F0F5FF18B9164BA3639C63C2E7BD
:1007D00000F0C0FAF8E700210391104B5A6C42F484
:1007E00000725A645A6C02F400720392039A0491E4
:1007F0001A6B42F001021A631B6B03F001030493AE
:10080000049B0C2305930323069305A9044802F0D7
:1008100031FBA0E7002001400021014000380240E8
:1008200000000240E80400201064024000B583B0DC
:1008300000220192094B196B41F4800119631B6B73
:1008400003F480030193019B0621382001F0EAFEA6
:10085000382001F01FFF03B05DF804FB00380240B0
:1008600008B504227F49804800F0DCFDA8E004229E
:100870007C497D4800F088FD4FF400717B4802F010
:10088000EBFB002840F0A4800221784802F0E4FB52
:100890000028F9D09CE0734A13680A3313600221E0
:1008A00000F1804000F5013002F0D6FB002840F056
:1008B000968002216D4802F0CFFB0028F9D08EE02F
:1008C000684A13680A3B1360042100F1804000F578
:1008D000013002F0C1FB002840F088800421634809
:1008E00002F0BAFB0028F9D080E05E4A53680A3370
:1008F00053604FF4007100F1804000F5043002F0C5
:10090000ABFB00287AD14FF40071594802F0A4FBE8
:100910000028F8D072E0534A53680A3B53604FF402
:10092000807100F1804000F5043002F095FB002852
:100930006BD14FF480714E4802F08EFB0028F8D046
:1009400063E0484A93680A3B9360102100F18040BD
:1009500000F5013002F080FB00285CD110214348F3
:1009600002F07AFB0028F9D055E03E4A93680A333A
:100970009360202100F1804000F5013002F06CFB13
:1009800000284ED12021394802F066FB0028F9D01A
:1009900047E0344AD3680A33D360402100F18040F5
:1009A00000F5013002F058FB002840D140212F48CB
:1009B00002F052FB0028F9D039E0012005F01CFAC2
:1009C0004FF40071294802F047FB00283FF44FAF75
:1009D0000221264802F040FB00283FF45CAF0421CE
:1009E000224802F039FB00283FF46AAF4FF400714F
:1009F0001F4802F031FB00283FF477AF4FF48071BD
:100A00001B4802F029FB002885D01021174802F06E
:100A100023FB002895D02021144802F01DFB00285C
:100A2000A3D04021114802F017FB0028B1D080214B
:100A30000E4802F011FB0028BFD10A4AD3680A3BD6
:100A4000D360802100F1804000F5013002F004FB0A
:100A50000028B2D18021054802F0FEFA0028F9D022
:100A6000ABE700BF78060020000002080004024047
:100A70000010024000B583B003F0D4FE094B009390
:100A800005231A463221084600F05AFD03F0ECFE19
:100A900048F210423A21352000F048FD012005F0CF
:100AA000ABF9F5E72469000870B586B003F0BAFE2B
:100AB00001F0F0F903F0D8FE49E006AB03EB850343
:100AC00053F8103C002B33DD06AB03EB850333F802
:100AD000103C6A0006A901EB450121F8183C2849A1
:100AE00001F8153001321B0A8B540134E4B2032C97
:100AF00025D82546234B33F8140006AB03EB8406B8
:100B000046F8100C21469FED200A00F069FB46F8DC
:100B1000100C1E4B53F82430184446F8100C40F6C5
:100B2000FE739842C9DD40F6FF7246F8102CC4E708
:100B3000002206AB03EB850343F8102CC4E74FF00B
:100B4000FF31134B186804F0BEFC01280FD04FF0A2
:100B5000FF31104B186804F0B6FC0128F7D10024CF
:100B6000029403940494059400940194BFE703F065
:100B700059FE1021024800F002FF03F075FEE6E77F
:100B800088060020500500203333B33E780600204D
:100B90004C0500204805002008B5124A01210846EE
:100BA00003F01EFD104B1860104A0121084603F0A7
:100BB00017FD0F4B18600F4A00210F4803F0B2FCDD
:100BC0000E4B18600E4A00210E4803F0ABFC0E4B92
:100BD00018600E4A00210E4803F0A4FC0D4B18606B
:100BE00008BD00BFE068000848050020F068000864
:100BF0004C0500207C69000861080008740600208C
:100C000058690008750A00081406002000690008E9
:100C1000A90A0008B405002000B583B0104A116885
:100C2000104B198052685A80090C9980120CDA8096
:100C3000002301930C4B186870B101A904F03BFB31
:100C4000019B4BB14FF0E0234FF08052C3F8042DCD
:100C5000BFF34F8FBFF36F8F03B05DF804FB00BF8E
:100C6000980600205005002048050020012800D0EB
:100C7000704700B583B000F09FFF002301930A4B3B
:100C8000186870B101A904F016FB019B4BB14FF03D
:100C9000E0234FF08052C3F8042DBFF34F8FBFF312
:100CA0006F8F03B05DF804FB4C05002010B58AB0CF
:100CB00000240594069407940894099401941D4B0C
:100CC0001A6B42F080021A631A6B02F080020192E2
:100CD000019A02941A6B42F001021A631A6B02F035
:100CE00001020292029A03941A6B42F004021A6300
:100CF0001A6B02F004020392039A04941A6B42F0F6
:100D000008021A631B6B03F008030493049B01237E
:100D100005934FF40413069305A9074802F0AAF8B7
:100D200022460521062001F07DFC062001F0B2FCE0
:100D30000AB010BD00380240000C024008B502683D
:100D4000034B9A4200D008BD01F09AF9FBE700BFBF
:100D50000020004072B6FEE700B595B030220021B9
:100D600008A805F0D7FC002303930493059306938A
:100D7000079301931F4A116C41F080511164126C6A
:100D800002F080520192019A02931B4A116841F4C9
:100D900080411160126802F480420292029A02229B
:100DA000089201210B9110210C910E920F930823B0
:100DB0001093A823119312920423139308A802F00E
:100DC00067F998B90F230393022304930023059333
:100DD0004FF4A05306934FF480530793052103A8C3
:100DE00002F0A4FB20B915B05DF804FBFFF7B2FFD9
:100DF000FFF7B0FF003802400070004008B501F076
:100E000025F9FFF7A9FFFFF751FFFFF70FFD00F0EE
:100E10002DF800F04BF8FFF7F7FBFFF74DFC00F063
:100E200065F94FF6FF7000F0A7FB00F096FD00F0AB
:100E3000F5F90A4C02222146094801F01DFB022265
:100E40002146084801F018FB074803F08FF803F02B
:100E50003BFBFFF7A1FE03F049FBFEE798060020ED
:100E600058040020A00400209807002008B50D4871
:100E70000D4B03604FF48273436000238360C360B3
:100E8000036143614FF400728261C3610362436294
:100E900083620A23C36202F01DFD00B908BDFFF79B
:100EA00059FFFBE7A00600200030014008B50E48BE
:100EB0000E4B03604FF48273436000238360C36072
:100EC000036143614FF4007282610822C2610362D0
:100ED000436283620A23C36202F0FCFC00B908BDCE
:100EE000FFF738FFFBE700BFF8060020003C00409A
:100EF00000B58BB0002305930693079308930993DD
:100F00000368284A934205D0274A934225D00BB064
:100F10005DF804FB00210191244B5A6C42F480528D
:100F20005A645A6C02F480520192019A02911A6B2F
:100F300042F001021A631B6B03F001030293029B50
:100F4000A023059302230693032308930523099303
:100F500005A9174801F08EFFD9E700210391134B33
:100F60001A6C42F400421A641A6C02F400420392B2
:100F7000039A04911A6B42F004021A631B6B03F08C
:100F800004030493049B4FF4E05305930223069358
:100F9000032308930623099305A9064801F06AFF75
:100FA000B5E700BF00300140003C0040003802407F
:100FB000000002400008024000B583B00022009209
:100FC0000D4B596C41F480415964596C01F48041D6
:100FD000009100990192196C41F0805119641B6CC9
:100FE00003F080530193019B0F216FF0010001F08A
:100FF00019FB03B05DF804FB0038024030B589B03E
:10100000044600230193214B1A6C42F480721A6447
:101010001B6C03F480730193019B02A903A802F0E7
:101020004BFB069BCBB902F037FB03461848A0FBED
:1010300003239B0C013B1748174A026040F2E7323A
:10104000C2604360002303618360836103F030F971
:10105000054630B1284609B030BD02F01DFB430003
:10106000E4E70C4802F0C0FF05460028F2D12D202D
:1010700001F010FB0F2C01D90125EBE700222146DE
:101080002D2001F0CFFA054B1C60E3E70038024049
:1010900083DE1B4350070020002000400800002092
:1010A000FEE7FEE7FEE7FEE7FEE7704708B5012032
:1010B00001F0E0FF08BD000008B5024802F0DCFFC7
:1010C00008BD00BF5007002008B5024801F00CFC25
:1010D00008BD00BFE8040020034AD2F8883043F47A
:1010E0007003C2F88830704700ED00E000B587B0AB
:1010F00000230293039304930593009301931548EF
:10110000154A02605322426083602722C260036155
:10111000836103F0CDF898B94FF48053029302A98C
:101120000C4803F0FEF870B92023009300230193CC
:101130006946084803F074F940B907B05DF804FB4C
:10114000FFF708FEE8E7FFF705FEEDE7FFF702FE11
:10115000F3E700BF98070020000400400268094B35
:101160009A4200D0704782B000230193064B1A6C5C
:1011700042F002021A641B6C03F002030193019B0C
:1011800002B070470004004000380240DFF834D05D
:10119000FFF7A2FF0C480D490D4A002302E0D45886
:1011A000C4500433C4188C42F9D30A4A0A4C0023B1
:1011B00001E013600432A242FBD305F087FAFFF787
:1011C0001DFE704700000220000000203C040020AB
:1011D000F06900083C04002068510020FEE7000090
:1011E00007EE900AF8EEE77A67EE807AB7EE007ABB
:1011F00037EE407A084B53F8212006EE902AB8EEDD
:10120000E60A20EE070A77EE807A43F82100FDEE29
:10121000E77A17EE900A7047E007002070B588B0B3
:101220000024039404940594069407940194304B8D
:101230001A6B42F010021A631A6B02F0100201924C
:10124000019A02941A6B42F002021A631B6B03F0BC
:1012500002030293029B4FF400760396254D03A9E7
:10126000284601F007FE4FF480730393049405941D
:1012700003A9284601F0FEFD02230393049405947C
:10128000A5F5406503A9284601F0F4FD0423039366
:101290000494059403A9284601F0ECFD1023039360
:1012A0000494059403A9284601F0E4FD2023039348
:1012B0000494059403A9284601F0DCFD4023039320
:1012C0000494059403A9284601F0D4FD80230393D8
:1012D0000494059403A9284601F0CCFD03960494D8
:1012E000059403A9284601F0C5FD08B070BD00BFF4
:1012F0000038024000100240204B984228D303F5EA
:101300008043984226D303F58043984224D31C4B54
:10131000984223D903F58033984221D903F500334D
:1013200098421FD903F5003398421DD903F50033C5
:1013300098421BD903F50033984219D903F50033BD
:10134000984217D903F50033984215D90B207047FE
:10135000002070470120704702207047032070472B
:10136000042070470520704706207047072070470B
:1013700008207047092070470A2070470040000885
:10138000FFFF000800687047F0B587B000230093A6
:10139000B0F1006F05D304460F46154610F0030F59
:1013A00001D007B0F0BD01F01FFC04EB85051C4B1C
:1013B0009C4225D34CF2503001F038FC10B301F0C0
:1013C0002BFCEEE7002301933046FFF795FF0390D7
:1013D0000123049302230593694601A801F000FD4F
:1013E0000028E7D14CF2503001F020FCAE42E1D2AF
:1013F0003046FFF7C7FFB0F1FF3FE3D10436F1E716
:101400002646F3E7AC42DAD23A68002321460220AE
:1014100001F03CFC0028D2D104340437F2E700BFCD
:1014200000100C08F8B505460F461646002406E0E5
:101430002846FFF7A7FF47F8240004350134B442DB
:10144000F6D3F8BD08B500F00DFA08BD08B500F0F8
:101450002DFA08BD10B5044600F0DCF9204600F076
:1014600001FA00F0E1F910BD98B500AF04464B0059
:101470000733DB086A46A2EBC3039D466846002398
:101480000BE05A0034F813C04FEA1C2E00F813E0AA
:10149000013200F802C001339BB28B42F1D3490004
:1014A00089B200F0F3F9BD4698BD08B500F09AF98D
:1014B00008BDF8B507460D4616461C462A20FFF71C
:1014C000C9FF3846FFF7C2FF3046FFF7BFFF2B20AA
:1014D000FFF7C0FF05F1140080B2FFF7B7FF04F17A
:1014E000140080B2FFF7B2FF2C20FFF7B3FFF8BD66
:1014F0002DE9F84381460F4615469846BDF8206011
:10150000013B013A9BB292B2FFF7D3FF08E03046AD
:10151000FFF79CFF0134A4B2AC42F8D30137BFB24D
:10152000474501D24C46F7E7BDE8F88310B50B46B6
:1015300014460246FFF7BDFF2046FFF787FF10BDA8
:1015400038B514461D4600EB020C1FFA8CFC01EB6B
:10155000030E1FFA8EFE0EF1FF3E0CF1FF3C1FFA48
:101560008EF31FFA8CF2FFF7A4FF14FB05F189B28A
:101570000498FFF779FF38BD10B582B0044600F03B
:10158000CBF800F033F96420FFF78FFF00F038F953
:101590006420FFF78AFF00F09FF96420FFF785FFC2
:1015A0001120FFF757FF7820FFF77FFF3620FFF766
:1015B00051FF0020FFF746FF3A20FFF74BFF0520C1
:1015C000FFF740FFB220FFF745FF0C20FFF73AFF7F
:1015D0000C20FFF737FF0020FFF734FF3320FFF721
:1015E00031FF3320FFF72EFFB720FFF733FF352001
:1015F000FFF728FFBB20FFF72DFF3220FFF722FF68
:10160000C220FFF727FF0120FFF71CFFC320FFF7D1
:1016100021FF1520FFF716FFC420FFF71BFF202036
:10162000FFF710FFC620FFF715FF0F20FFF70AFF97
:10163000D020FFF70FFFA420FFF704FFA120FFF742
:1016400001FFE020FFF706FFD020FFF7FBFE082098
:10165000FFF7F8FE0E20FFF7F5FE0920FFF7F2FE78
:101660000920FFF7EFFE0520FFF7ECFE3120FFF722
:10167000E9FE3320FFF7E6FE4820FFF7E3FE1720E0
:10168000FFF7E0FE1420FFF7DDFE1520FFF7DAFE7E
:101690003120FFF7D7FE3420FFF7D4FEE120FFF71B
:1016A000D9FED020FFF7CEFE0820FFF7CBFE0E209C
:1016B000FFF7C8FE0920FFF7C5FE0920FFF7C2FEAD
:1016C0001520FFF7BFFE3120FFF7BCFE3320FFF7E8
:1016D000B9FE4820FFF7B6FE1720FFF7B3FE14202F
:1016E000FFF7B0FE1520FFF7ADFE3120FFF7AAFE91
:1016F0003420FFF7A7FE2120FFF7ACFE2920FFF7DB
:10170000A9FE00944FF48C73F02200210846FFF7E5
:10171000EFFE02B010BD00002DE9F04188B00023BB
:101720000393049305930693079301932A4A116B3D
:1017300041F001011163116B01F001010191019967
:101740000293136B43F004031363136B03F004035E
:101750000293029B214F01221021384601F083FCA5
:101760001F4D01221021284601F07DFC012240215D
:10177000384601F078FC01222021284601F073FC54
:101780004FF01008CDF80C80012404940594022633
:10179000069603A9384601F06DFBCDF80C80049441
:1017A0000594069603A9284601F064FB40230393A1
:1017B00004940594069603A9384601F05BFB2023A8
:1017C000039304940594069603A9284601F052FB5E
:1017D00008B0BDE8F08100BF0038024000000240C0
:1017E0000008024008B500F05DFC08BD08B5002205
:1017F0001021024801F037FC08BD00BF0000024084
:1018000008B501221021024801F02DFC08BD00BFDF
:101810000000024008B500221021024801F023FC1C
:1018200008BD00BF0008024008B50122102102488F
:1018300001F019FC08BD00BF0008024008B50022F5
:101840004021024801F00FFC08BD00BF000002402B
:1018500008B501224021024801F005FC08BD00BF87
:101860000000024000B583B08DF80700FFF7E6FFE7
:101870000A2301220DF10701034802F08AF8FFF75D
:10188000E7FF03B05DF804FBA006002038B504466E
:101890000D46FFF7D3FF64232A462146024802F093
:1018A00078F8FFF7D5FF38BDA006002000B583B05B
:1018B000030A8DF804308DF80500FFF7BFFF0A23F7
:1018C000022201A9034802F064F8FFF7C1FF03B048
:1018D0005DF804FBA006002008B501222021024883
:1018E00001F0C1FB08BD00BF0008024030B585B063
:1018F0000C4615468DF8070000F076FB00238DF8A6
:101900000F300DF10F010DF1070000F077FB2946B4
:10191000204600F083FB00F05DFB9DF80F0005B052
:1019200030BD30B583B00C46154620308DF8070029
:1019300000F05AFB00238DF806300DF106010DF181
:10194000070000F05BFB2946204600F071FB00F029
:1019500041FB9DF8060003B030BD00B583B000F038
:10196000DBFA0B2000F06EFB00208DF8070001224F
:101970000DF10701FFF7BAFF03B05DF804FB30B5C6
:1019800083B004460D46A0238DF8073000238DF860
:10199000063000F029FB0DF106010DF1070000F003
:1019A0002DFB2946204600F043FB00F013FB9DF879
:1019B000060003B030BD00B583B0E1238DF80730D9
:1019C00000238DF8063000F00FFB0DF106010DF13C
:1019D000070000F013FB00F0FDFA9DF8060003B0CD
:1019E0005DF804FB00B583B0E2238DF807300023D7
:1019F0008DF8063000F0F8FA0DF106010DF1070040
:101A000000F0FCFA00F0E6FA9DF8060003B05DF87D
:101A100004FB10B582B000F0DDFA00F0D1FA082323
:101A20008DF8073001220DF107010020FFF779FF43
:101A30003F238DF8073001220DF107011046FFF713
:101A400070FF03248DF8074001220DF107010220E9
:101A5000FFF767FF8DF8074001220DF107012046CF
:101A6000FFF75FFF8DF8074001220DF10701042009
:101A7000FFF757FF02238DF8073001220DF1070110
:101A80000520FFF74EFF0E238DF8073001220DF1E0
:101A900007010620FFF745FF7E238DF8073001225E
:101AA0000DF107010720FFF73CFF00248DF80740E8
:101AB00001220DF107011120FFF733FF01220DF183
:101AC00007011220FFF72DFF01220DF1070113205E
:101AD000FFF727FF01220DF107011420FFF721FF77
:101AE00001220DF107011520FFF71BFF01220DF167
:101AF00007011620FFF715FF11238DF8073001228B
:101B00000DF107011720FFF70CFF8DF807400122A8
:101B10000DF107011C20FFF704FF01220DF1070161
:101B20001D20FFF7FEFEFFF746FFFFF75BFF02B049
:101B300010BD00B583B0FF238DF8073000238DF86A
:101B4000063000F051FA0DF106010DF1070000F02A
:101B500055FA00F03FFA9DF8060003B05DF804FB6B
:101B600000B583B000238DF80730FFF7E2FF8DF852
:101B7000070040F020008DF8070001220DF1070159
:101B80000720FFF7CEFE03B05DF804FB00B583B07D
:101B900000238DF80730FFF7CCFF8DF8070040F0E9
:101BA00010008DF8070001220DF107010720FFF753
:101BB000B8FE03B05DF804FB08B5FFF7BAFF10F0FC
:101BC000200F02D0FFF7CCFF08BDFFF7DFFFFBE7D8
:101BD00000B583B08DF8070005290AD8DFE801F0C9
:101BE000030C131A212801220DF107011120FFF720
:101BF00098FE03B05DF804FB01220DF107011220ED
:101C0000FFF78FFEF5E701220DF107011320FFF723
:101C100088FEEEE701220DF107011420FFF781FE97
:101C2000E7E701220DF107011520FFF77AFEE0E753
:101C300001220DF107011620FFF773FED9E710B559
:101C400082B0044600238DF8073001220DF1070110
:101C50000620FFF74BFE9DF8073023F028038DF890
:101C600007302CB1012C0AD0022C15D002B010BDC7
:101C700001220DF107010620FFF753FEF2E79DF860
:101C8000073043F008038DF8073001220DF10701FA
:101C90000620FFF746FEE7E79DF8073043F0140300
:101CA0008DF8073001220DF107010620FFF739FEFC
:101CB000DCE710B582B0044600238DF8073001221E
:101CC0000DF107010620FFF711FE9DF8073003F024
:101CD000F8038DF80730072C0BD8DFE804F0040C6C
:101CE00017222D38434E01220DF107010620FFF780
:101CF00018FE02B010BD43F001038DF80730012239
:101D00000DF107010620FFF70CFEF2E743F0020396
:101D10008DF8073001220DF107010620FFF701FEC3
:101D2000E7E743F003038DF8073001220DF10701C7
:101D30000620FFF7F6FDDCE743F004038DF80730DB
:101D400001220DF107010620FFF7EBFDD1E743F07B
:101D500005038DF8073001220DF107010620FFF77A
:101D6000E0FDC6E743F006038DF8073001220DF1D0
:101D700007010620FFF7D5FDBBE743F007038DF809
:101D8000073001220DF107010620FFF7CAFDB0E779
:101D900000B583B060388DF8070001220DF107010E
:101DA0000520FFF7BEFD03B05DF804FB10B582B05F
:101DB000044600208DF8070001220DF10701FFF70E
:101DC00095FD9DF8073003F0FB038DF80730012CDB
:101DD0000BD043F004038DF8073001220DF1070109
:101DE0000020FFF79EFD02B010BD01220DF107019A
:101DF0000020FFF796FDF6E710B582B004460023F9
:101E00008DF8073001220DF107010320FFF76EFD69
:101E10009DF8073003F0FC038DF80730042C10D038
:101E2000052C13D0032C07D001220DF1070103204C
:101E3000FFF777FD02B010BD43F001038DF80730C6
:101E4000F2E743F002038DF80730EDE743F00303B8
:101E50008DF80730E8E7000000B583B000238DF867
:101E60000730FA380A4A82FB0032C317C3EB221349
:101E7000DBB21B01DBB20B438DF8073001220DF101
:101E800007010420FFF74DFD03B05DF804FB00BF20
:101E9000D34D621010B582B0FFF7BBFD00248DF862
:101EA000074001220DF107012046FFF71FFD9DF8B5
:101EB000073023F001038DF8073001220DF10701EF
:101EC0002046FFF72EFD21461020FFF781FE40F649
:101ED000C410FFF75DFF2046FFF7B1FE0720FFF7B4
:101EE000E8FE0220FFF762FF0520FFF785FF0A21C9
:101EF0004FF4FA70FFF7B0FF9DF8073043F002038C
:101F00008DF8073001220DF107012046FFF709FD8A
:101F100000F04CF802B010BD2DE9F04188B000246B
:101F20000394049405940694079401941C4B1A6B33
:101F300042F001021A631A6B02F001020192019A47
:101F400002941A6B42F008021A631B6B03F0080339
:101F50000293029BDFF8508001224FF4004140467B
:101F600001F081F80F4E01220221304601F07BF88A
:101F70004FF4004303930127049705940225069527
:101F800003A9404600F076FF039504970594069553
:101F900003A9304600F06EFF08B0BDE8F08100BF35
:101FA00000380240000C02400000024008B5012247
:101FB0004FF40041014801F056F808BD000002400E
:101FC00008B500224FF40041014801F04CF808BD6B
:101FD0000000024008B501220221024801F043F846
:101FE00008BD00BF000C024008B5002202210248D3
:101FF00001F039F808BD00BF000C024000B583B005
:102000000A466423009301230146034801F09DFD25
:1020100003B05DF804FB00BFF806002008B50A46CF
:1020200064230146014801F0B2FE08BDF806002015
:1020300008B50A4664230146014801F0AAFC08BD20
:10204000F806002008B500F02DF808BD08B50B4BC8
:102050001A6842F400721A601A6842F480621A60C8
:102060001A6842F480721A60032000F0C9FA0F2047
:10207000FEF7C4FFFEF7A0FF002008BD003C0240B1
:10208000034A1168034B1B780B441360704700BF71
:10209000F007002004000020014B1868704700BFC3
:1020A000F007002038B50446FFF7F6FF0546B4F107
:1020B000FF3F02D0044B1B781C44FFF7EDFF401B91
:1020C000A042FAD338BD00BF040000204A4B5A6832
:1020D00022F440325A605A6841680A435A600268E2
:1020E000536823F48073536002685368016943EABC
:1020F000012353600268536823F040735360026801
:10210000536881680B4353600268936823F400634B
:10211000936002689368C1680B439360826A374B8F
:102120009A4257D00268936823F070639360026804
:102130009368816A0B4393600268936823F040536D
:10214000936002689368C16A0B4393600268936866
:1021500023F00203936002689368017E43EA41031F
:10216000936090F82030002B3FD00268536843F40E
:10217000006353600268536823F46043536001684E
:102180004B68426A013A43EA42334B600268D36AC1
:1021900023F47003D3620168CB6AC269013A43EA4F
:1021A0000253CB620268936823F400739360026861
:1021B000936890F8301043EA412393600268936873
:1021C00023F48063936002689368416943EA812342
:1021D000936070470268936823F0706393600268AD
:1021E000936823F040539360B0E70268536823F488
:1021F00000635360CAE700BF002301400100000FE5
:1022000038B310B50446036C43B1236C13F0100FC0
:102210000BD00120002384F83C3010BDFEF78CFA6F
:102220000023636484F83C30EFE7236C23F4885385
:1022300023F0020343F0020323642046FFF746FF26
:1022400000206064236C23F0030343F00103236444
:10225000E0E70120704770477047000030B482B05B
:102260000023019390F83C30012B00F0BB80012348
:1022700080F83C300B68092B41D90468E2689BB2B6
:1022800003EB43031E3B4FF0070C0CFA03F322EA67
:102290000303E3600468E2680B8803EB43031E3B1F
:1022A0008D6805FA03F31343E3604B68062B3DD8B2
:1022B0000468626B03EB8303053B4FF01F0C0CFAC1
:1022C00003F322EA030363630468626B4B6803EB66
:1022D0008303053BB1F800C00CFA03F313436363B7
:1022E0000268414B9A4251D002683F4B9A4256D005
:1022F000002380F83C30184602B030BC70470468B8
:1023000022699BB203EB43034FF0070C0CFA03F373
:1023100022EA03032361046822690B8803EB430369
:102320008D6805FA03F313432361BEE70C2B16D81F
:1023300005682A6B03EB8303233B1F2404FA03F392
:1023400022EA03032B6305682A6B4B6803EB8303C4
:10235000233B0C8804FA03F313432B63C0E705689F
:10236000EA6A03EB8303413B1F2404FA03F322EAE6
:102370000303EB620568EA6A4B6803EB8303413BA6
:102380000C8804FA03F31343EB62A9E70B68122BE2
:10239000AAD1164A536843F480035360A4E70B683C
:1023A000103B012BA4D8114A536843F40003536037
:1023B0000B68102B9CD10E4B1B6802F1467202F584
:1023C0002E3202F28332A2FB03239B0C03EB830326
:1023D0005B00019302E0019B013B0193019B002BF9
:1023E000F9D185E7022087E7002001400023014062
:1023F0000000002008B5806B40230364436C43F069
:1024000004034364FFF728FF08BD08B5806BFFF79E
:1024100022FF08BD08B5836B1A6C12F0500F26D14D
:102420001A6C42F400721A641A68916811F0405FE5
:1024300019D1197EB9B9D16A11F4700F03D091681E
:1024400011F4806F0FD1516821F0200151601A6C96
:1024500022F480721A641A6C12F4805F03D11A6C31
:1024600042F001021A641846FEF7D6FB08BD9B6BCA
:10247000DB6C9847FAE7000010B582B013460022E3
:10248000019290F83C20012A7CD00446012280F879
:102490003C200268906810F0010F13D1906840F062
:1024A00001009060394A1068394AA2FB0020800C74
:1024B00000EB4000019002E0019801380190019882
:1024C0000028F9D12268906810F0010F4FD0206CDD
:1024D00020F4E06020F0010040F480702064526835
:1024E00012F4806F05D0226C22F4405242F48052E4
:1024F0002264226C12F4805F30D0626C22F00602FB
:102500006264002284F83C20A26B2248D063A26B54
:1025100021481064A26B2148D06422686FF0020049
:1025200010602068426842F08062426094F8302077
:10253000BAB11B48426842F4005242600A46194947
:10254000A06B00F09BF923689A6812F0405F1BD1E2
:102550009A6842F080429A60002011E00022626492
:10256000CFE70F48426822F400524260E6E7236C4E
:1025700043F010032364636C43F0010363640020A1
:1025800002B010BD0220FBE70020F9E700000020A8
:1025900083DE1B43152400080B240008F5230008E4
:1025A000002301400823014090F83C30012B23D048
:1025B00010B4012380F83C30104B5A6822F01F02FF
:1025C0005A605A680C6822435A605A6822F44042A2
:1025D0005A605A684C6822435A605A6822F4706202
:1025E0005A605A6889680A435A60002380F83C3070
:1025F00018465DF8044B70470220704700230140E5
:10260000074AD36823F4E0631B041B0C000200F4A8
:10261000E060034343F0BF6343F40033D36070478B
:1026200000ED00E000B5194BDB68C3F30223C3F1F2
:10263000070CBCF1040F28BF4FF0040C03F1040E8B
:10264000BEF1060F18D9033B4FF0FF3E0EFA0CFC0B
:1026500021EA0C0199400EFA03F322EA030319431D
:1026600000280BDB0901C9B200F1604000F56140B0
:1026700080F800135DF804FB0023E5E700F00F008D
:102680000901C9B2024B1954F4E700BF00ED00E0A4
:1026900014ED00E0002807DB00F01F0240090123D1
:1026A0009340024A42F82030704700BF00E100E04A
:1026B00030B405682C6824F480242C6004686360BE
:1026C0008368402B05D0036899600368DA6030BCEA
:1026D000704703689A600368D960F8E710B403682C
:1026E000D9B210390C4AA2FB014212090B4CA25C70
:1026F000C2655F2909D923F47F7323F003030433F0
:102700008365806D5DF8044B704723F47F7323F07D
:1027100003038365F5E700BFABAAAAAAB86900085E
:10272000836A826992B9012B0AD0022B02D00BB1C5
:1027300000207047C36A13F0807F28D100207047C3
:10274000C36AB3F1C07F24D000207047B2F5005FA8
:1027500009D0022B25D9032B25D1C36A13F0807F22
:1027600023D100207047032B03D8DFE803F01404C3
:10277000140A00207047C36A13F0807F0DD1002037
:102780007047C36AB3F1C07F09D0002070470120B1
:1027900070470120704701207047012070470120D9
:1027A00070470120704700207047012070470000EB
:1027B00070B50446FFF770FC002C5BD00546022381
:1027C00084F83530002384F834302268136823F00D
:1027D0000103136023681A6812F0010F0AD0FFF793
:1027E0005BFC431B052BF5D920236365032084F88C
:1027F000350070BD1A68204810406168A2680A431D
:10280000E1680A4321690A4361690A43A1690A43ED
:10281000E1690A43216A0A430243616A04291ED01E
:102820001A602668756925F00705636A1D43042B45
:1028300007D1A36A1D43E36A1BB12046FFF770FF6F
:1028400090B975612046FFF749FFE26D3F23934041
:10285000836000206065012384F83530C9E7E16AB0
:10286000206B01430A43DBE740236365012084F8C2
:102870003500BEE70120BCE73F8010F038B50446C4
:10288000856D90F8340001282BD0012084F83400A5
:1028900094F83500C0B2012804D0002384F8343005
:1028A000022038BD022084F83500002060652046F3
:1028B000FFF7FEFEE26D3F239340AB602268136892
:1028C00043F016031360236C23B12268136843F0AE
:1028D000080313602268136843F0010313600020AB
:1028E000DFE70220DDE70000F0B583B004460023F7
:1028F0000193724B1D68724BA3FB0535AD0A876DC2
:102900003E68C26D08239340334210D003681A68B2
:1029100012F0040F0BD01A6822F004021A60C26D84
:1029200008239340BB60436D43F001034365E26DB0
:1029300001239340334209D02268526912F0800F7C
:1029400004D0BB60636D43F002036365E26D042352
:102950009340334209D02268126812F0020F04D06B
:10296000BB60636D43F004036365E26D1023934025
:10297000334224D02268126812F0080F1FD0BB60C7
:1029800023681A6812F4802F0DD01B6813F4002FEF
:1029900004D1236C9BB12046984710E0A36C73B11F
:1029A000204698470BE01A6812F4807F03D11A681A
:1029B00022F008021A60236C0BB120469847E26DA2
:1029C00020239340334255D02268126812F0100F32
:1029D00050D0BB6094F83530DBB2052B0ED02368A5
:1029E0001A6812F4802F33D01B6813F4002F2AD1F9
:1029F000636C002B3ED0204698473BE0226813686A
:102A000023F0160313602268536923F08003536197
:102A1000236CA3B12268136823F008031360E26DEE
:102A20003F239340BB60012384F83530002384F8B2
:102A30003430236D002B3FD0204698473CE0A36CF8
:102A4000002BE7D1EBE7E36BA3B12046984711E0F9
:102A50001A6812F4807F09D11A6822F010021A60F5
:102A6000012384F83530002384F83430E36B0BB154
:102A700020469847636DFBB1636D13F0010F17D0CB
:102A8000052384F835302268136823F001031360AE
:102A9000019B01330193AB4204D823681B6813F0F8
:102AA000010FF5D1012384F83530002384F8343048
:102AB000E36C0BB12046984703B0F0BD0000002046
:102AC000B5814E1B10B40A490C6924F440740C61A2
:102AD0000C6944F440740C610C6944F001040C610D
:102AE0000260BFF36F8F43605DF8044B704700BF17
:102AF000003C0240074B1A6922F440721A611A69BD
:102B000042F400721A611A6942F001021A6101600E
:102B1000704700BF003C0240074B1A6922F4407224
:102B20001A611A6942F480721A611A6942F001024C
:102B30001A610180704700BF003C0240064B1A69D1
:102B400022F440721A611A691A611A6942F001028C
:102B50001A610170704700BF003C0240204BDB68E7
:102B600013F0100F07D01F4AD36943F01003D3614D
:102B70001B4B1022DA601A4BDB6813F0200F07D0D2
:102B8000184AD36943F00803D361154B2022DA6059
:102B9000134BDB6813F0400F07D0124AD36943F0A0
:102BA0000403D3610E4B4022DA600D4BDB6813F057
:102BB000800F07D00B4AD36943F00203D361084B5F
:102BC0008022DA60064BDB6813F0020F07D0054A5B
:102BD000D36943F02003D361014B0222DA607047CE
:102BE000003C0240F4070020094B1B69002B01DB6D
:102BF00000207047064B074A5A6002F188325A603B
:102C00001B69002B01DB002070470120704700BFCB
:102C1000003C024023016745034A136943F0004327
:102C200013610020704700BF003C024038B50446E5
:102C3000144B0022DA61FFF72FFA0546124BDB68CE
:102C400013F4803F0AD0B4F1FF3FF7D024B1FFF76F
:102C500023FA401BA042F1D903200DE00A4BDB68A8
:102C600013F0010F02D0084B0122DA60064BDB683B
:102C700013F0F20F01D1002038BDFFF76FFF0120E4
:102C8000FAE700BFF4070020003C0240F8B5164602
:102C90001B4A127E012A30D004460D461F46184BAF
:102CA00001221A764CF25030FFF7C0FF90B9ACB158
:102CB000012C18D0022C1BD032463B462846FFF789
:102CC00001FF4CF25030FFF7B1FF0E4A136923F0B9
:102CD000010313610A4B00221A76F8BDF1B22846AF
:102CE000FFF72CFFEDE7B1B22846FFF715FFE8E745
:102CF00031462846FFF7FEFEE3E70220EDE700BF7E
:102D0000F4070020003C0240074B196921F4407190
:102D10001961196941F0040119611A6942EA002236
:102D200042F480321A617047003C024049B10129E7
:102D300021D0022902D04FF4407C04E04FF4007C03
:102D400001E04FF0000C0D4B196921F4407119613D
:102D50001A6942EA0C021A611A6922F0F8021A6131
:102D60001A6942EAC00040F0020018611A6942F490
:102D700080321A6170474FF4807CE4E7003C0240E7
:102D8000164B1B6813F4007F10D0144B1A6822F402
:102D900000721A601A6842F400621A601A6822F41B
:102DA00000621A601A6842F400721A600B4B1B68CA
:102DB00013F4806F10D0094B1A6822F480621A60F5
:102DC0001A6842F480521A601A6822F480521A601B
:102DD0001A6842F480621A60704700BF003C0240EB
:102DE000F8B5224B1B7E012B3ED004460E461F4BEE
:102DF00001221A764CF25030FFF718FF074670BBDD
:102E00004FF0FF3333602368012B16D0A568E368C9
:102E1000A2681344AB4220D9217C2846FFF786FFE5
:102E20004CF25030FFF702FF114A136923F0FA0306
:102E30001361074680B90135E9E76168207CFFF737
:102E400063FF4CF25030FFF7F1FE0746084A136962
:102E500023F00403136100E03560FFF791FF034B9B
:102E600000221A763846F8BD0227FBE7F407002057
:102E7000003C024000230F2B00F2E48070B582B0CA
:102E800060E085685E000324B44025EA0405CC6850
:102E9000B4402C438460456825EA02054C68C4F3BD
:102EA00000129A402A4342605AE0DC08083450F885
:102EB000246003F0070295000F22AA4026EA020EC2
:102EC0000A69AA4042EA0E0240F824205CE0072288
:102ED00000E0002202FA0EF22A4302345A4D45F86D
:102EE00024205A4A94686FEA0C0224EA0C054E68C2
:102EF00016F4801F01D04CEA0405544CA560E46828
:102F000002EA04054E6816F4001F01D04CEA0405DD
:102F10004E4CE560646802EA04054E6816F4003F12
:102F200001D04CEA0405494C6560246822404D6894
:102F300015F4803F01D04CEA0402444C2260013376
:102F40000F2B7DD801229A400C6804EA020C32EA69
:102F50000404F4D14C6804F00304013C012C90D922
:102F60004A6802F00302032A09D0C4685D00032204
:102F7000AA4024EA02048A68AA402243C2604A683E
:102F800002F00302022A90D004684FEA430E0322A3
:102F900002FA0EF224EA02044A6802F0030202FA7C
:102FA0000EF2224302604A6812F4403FC7D000226A
:102FB0000192274A546C44F480445464526C02F4E5
:102FC00080420192019A9C08A51C1F4A52F8255084
:102FD00003F003024FEA820E0F2202FA0EF225EAF4
:102FE00002051C4A90423FF474AF02F580629042A1
:102FF0001AD002F58062904218D002F580629042A9
:1030000016D002F58062904214D002F580629042A0
:1030100012D002F58062904210D002F58062904298
:103020003FF455AF082255E7012253E7022251E74A
:1030300003224FE704224DE705224BE7062249E72A
:1030400002B070BD704700BF00380140003C014035
:1030500000380240000002400369194201D00120FB
:103060007047002070470AB181617047090481618F
:103070007047000008B5054B5B69034200D108BDED
:10308000024B5861FDF7F2FDF9E700BF003C01403B
:10309000002800F0E08170B582B00446036813F0A8
:1030A000010F3BD09F4B9B6803F00C03042B2CD0EB
:1030B0009C4B9B6803F00C03082B21D06368B3F58D
:1030C000803F4FD0B3F5A02F52D0964B1A6822F410
:1030D00080321A601A6822F480221A606368002B1A
:1030E00050D0FEF7D9FF05468E4B1B6813F4003F06
:1030F00014D1FEF7D1FF401B6428F5D90320B1E1BC
:10310000884B5B6813F4800FD8D0864B1B6813F490
:10311000003F03D06368002B00F09F81236813F009
:10312000020F54D07F4B9B6813F00C0F3ED07D4BA9
:103130009B6803F00C03082B33D0E368002B68D0A6
:10314000794B01221A60FEF7A7FF0546754B1B68F5
:1031500013F0020F54D1FEF79FFF401B0228F5D950
:1031600003207FE16F4A136843F480331360B5E7AF
:103170006C4B1A6842F480221A601A6842F480325A
:103180001A60ABE7FEF788FF0546664B1B6813F431
:10319000003FC3D0FEF780FF401B6428F5D9032011
:1031A00060E1604B5B6813F4800FC6D15D4B1B6818
:1031B00013F0020F03D0E368012B40F05081594A0D
:1031C000136823F0F803216943EAC10313602368FD
:1031D00013F0080F42D063696BB3534B0122C3F85D
:1031E000802EFEF759FF05464E4B5B6F13F0020F22
:1031F00034D1FEF751FF401B0228F5D9032031E1FD
:10320000484A136823F0F803216943EAC1031360B5
:10321000DDE7454B00221A60FEF73EFF0546414BB5
:103220001B6813F0020FD2D0FEF736FF401B0228B6
:10323000F5D9032016E13C4B0022C3F8802EFEF79F
:103240002BFF0546374B5B6F13F0020F06D0FEF7DE
:1032500023FF401B0228F5D9032003E1236813F064
:10326000040F77D02F4B1B6C13F0805F33D10023FA
:1032700001932C4B1A6C42F080521A641B6C03F0C1
:1032800080530193019B0125284B1B6813F4807F19
:1032900023D0A368012B34D0052B38D0214B1A6FD3
:1032A00022F001021A671A6F22F004021A67A3685B
:1032B000002B3DD0FEF7F0FE06461A4B1B6F13F0B5
:1032C000020F46D1FEF7E8FE801B41F28833984298
:1032D000F3D90320C6E00025D6E7144A136843F467
:1032E00080731360FEF7D8FE0646104B1B6813F47C
:1032F000807FCED1FEF7D0FE801B0228F5D90320B7
:10330000B0E0084A136F43F001031367CFE7054BA2
:103310001A6F42F004021A671A6F42F001021A672C
:10332000C5E700BF0038024000004742007000407F
:10333000FEF7B2FE0646524B1B6F13F0020F08D089
:10334000FEF7AAFE801B41F288339842F3D903208E
:1033500088E0EDB9A369002B00F08380484A9268A9
:1033600002F00C02082A51D0022B17D0454B002244
:103370001A66FEF791FE0446414B1B6813F0007F6E
:1033800042D0FEF789FE001B0228F5D9032069E030
:103390003B4A136C23F080531364DBE7394B002264
:1033A0001A66FEF779FE0546354B1B6813F0007F61
:1033B00006D0FEF771FE401B0228F5D9032051E02C
:1033C000E369226A1343626A43EA8213A26A5208DB
:1033D000013A43EA0243E26A43EA0263284A53603D
:1033E000284B01221A66FEF757FE0446244B1B6841
:1033F00013F0007F06D1FEF74FFE001B0228F5D91F
:1034000003202FE000202DE000202BE0012B2BD00B
:103410001B4B5B6803F48001E269914226D103F003
:103420003F02216A8A4223D1616A47F6C0721A407C
:10343000B2EB811F1ED103F44031A26A5208013A57
:10344000B1EB024F18D103F07063E26AB3EB026F85
:1034500014D1002006E001207047012002E0012085
:1034600000E0002002B070BD0120FBE70120F9E779
:103470000120F7E70120F5E70120F3E70120F1E75C
:10348000003802400000474208B5254B9B6803F016
:103490000C03042B3FD0082B3FD1214B5A6802F07C
:1034A0003F025B6813F4800F12D01D4B5968C1F3C3
:1034B00088111C480023A1FB0001FCF789FE184B72
:1034C0005B68C3F3014301335B00B0FBF3F025E01D
:1034D000134B5968C1F3881C4FEA4C11B1EB0C0037
:1034E0006EEB0E0E4FEA8E1343EA90638101091AC8
:1034F00063EB0E03DB0043EA5173C90011EB0C0CC4
:1035000043F10003990200234FEA8C2041EA9C51C9
:10351000FCF75EFED3E7034800E0034808BD00BFA8
:1035200000380240001BB7000024F400002800F01F
:103530009B8070B50D4604464F4B1B6803F0070394
:103540008B4208D2CBB24C4A1370136803F00703C6
:103550008B4240F08B80236813F0020F17D013F0DA
:10356000040F04D0454A936843F4E0539360236802
:1035700013F0080F04D0414A936843F4604393600A
:103580003E4A936823F0F003A1680B4393602368DD
:1035900013F0010F32D06368012B21D09A1E012A4B
:1035A00025D9364A126812F0020F61D033498A6871
:1035B00022F0030213438B60FEF76EFD06462F4B8D
:1035C0009B6803F00C036268B3EB820F16D0FEF722
:1035D00063FD801B41F288339842F0D9032042E01A
:1035E000264A126812F4003FE0D101203BE0234A52
:1035F000126812F0007FD9D1012034E01E4B1B6805
:1036000003F00703AB4207D9EAB21B4B1A701B68E1
:1036100003F00703AB422DD1236813F0040F06D04B
:10362000164A936823F4E053E1680B4393602368E0
:1036300013F0080F07D0114A936823F460432169FF
:1036400043EAC1039360FFF71FFF0C4B9B68C3F372
:1036500003130B4AD35CD8400A4B18600A4B186816
:10366000FDF7CCFC002070BD012070470120FAE777
:103670000120F8E70120F6E7003C02400038024054
:10368000A06900080000002008000020014B186815
:10369000704700BF0000002008B5FFF7F7FF044B9C
:1036A0009B68C3F38223034AD35CD84008BD00BFA4
:1036B00000380240B06900080F2303600B4B9A6882
:1036C00002F0030242609A6802F0F00282609A6897
:1036D00002F4E052C2609B68DB0803F4E05303612C
:1036E000034B1B6803F007030B6070470038024070
:1036F000003C02402DE9F04782B005468846174657
:103700001E46FEF7C9FC0A9B1B1A03EB0609FEF7CF
:10371000C3FC82462B4B1B68C3F3CB3309FB03F37B
:1037200001932B689C6838EA04030CBF4FF0010C2E
:103730004FF0000CBC4540D0B6F1FF3FF1D0FEF792
:10374000ABFCA0EB0A0048450AD2B9F1000F07D044
:10375000019A02B14A46019B013B01939146E0E781
:103760002A68536823F0E00353606B68B3F5827FE7
:103770000BD0AB6AB3F5005F14D0012385F851304C
:10378000002385F85030032018E0AB68B3F5004FF4
:1037900002D0B3F5806FECD12A68136823F04003A0
:1037A0001360E6E72A68136823F4005313602A685D
:1037B000136843F400531360DFE7002002B0BDE854
:1037C000F08700BF0000002070B584B004460D46AD
:1037D000164600920B4601220221FFF78BFFD0B95B
:1037E000174B1B68174AA2FB03235B0D4FF47A7239
:1037F00002FB03F303936368B3F5827F11D0039B4D
:103800003BB1039B013B039323689B6813F0800F3C
:10381000F5D104B070BD636D43F0200363650320F0
:10382000F7E700962B46002280212046FFF762FF33
:103830000028EED0636D43F0200363650320E8E7C2
:1038400000000020819F5E1610B582B004460B4632
:103850004168B1F5827F14D06168B1F5827F2AD1C9
:10386000A168B1F5806F19D0009200228021204616
:10387000FFF740FF30B3636D43F02003636503201F
:1038800020E08168B1F5004F02D0B1F5806FE3D13F
:103890002068016821F040010160DDE7009200220C
:1038A00001212046FFF726FF60B1636D43F020033E
:1038B0006365032006E00092002201212046FFF705
:1038C00019FF08B902B010BD636D43F020036365B2
:1038D0000320F7E700285AD010B50446436A33B9ED
:1038E0004368B3F5827F05D00023C36102E0002363
:1038F000036143610023A36294F85130002B40D050
:10390000022384F851302268136823F040031360C7
:10391000636803F48273A26802F404421343E2680A
:1039200002F400621343226902F002021343626947
:1039300002F001021343A26902F400721343E26928
:1039400002F038021343226A02F080021343A26A93
:1039500002F40052216813430B60638B03F00403ED
:10396000626A02F01002216813434B602268D36937
:1039700023F40063D36100206065012384F8513093
:1039800010BD84F850302046FDF7B2FAB8E70120A8
:1039900070472DE9F04383B01D4690F85030012B5D
:1039A00000F0D180044688469146012380F85030CB
:1039B000FEF772FB074694F85160F6B2012E40F014
:1039C000BA80B8F1000F00F0B780B9F1000F00F035
:1039D000B380032384F8513000236365C4F830803A
:1039E000A4F83490A4F83690A363A387E3876364B4
:1039F0002364A368B3F5004F1ED023681A6812F041
:103A0000400F03D11A6842F040021A60E368B3F530
:103A1000006F1CD0636813B1B9F1010F55D1226B4F
:103A2000236812781A73236B01332363E38E9BB2EE
:103A3000013B9BB2E38648E02268136823F0400311
:103A400013602268136843F480431360D5E763680A
:103A500013B1B9F1010F15D1226B23681288DA6016
:103A6000236B02332363E38E9BB2013B9BB2E3865D
:103A700008E0FEF711FBC01BA84202D3B5F1FF3FDF
:103A800015D1A5B1E38E9BB2002B3CD023689A6878
:103A900012F0020FEDD0226B1288DA60236B023332
:103AA0002363E38E9BB2013B9BB2E386EAE70123EB
:103AB00084F8513003263FE0FEF7EEFAC01BA8421F
:103AC00002D3B5F1FF3F19D1C5B1E38E9BB2D3B19B
:103AD00023689A6812F0020FEED0226B12781A73E4
:103AE000236B01332363B4F836C01FFA8CFC0CF14E
:103AF000FF3C1FFA8CFCA4F836C0E6E7012384F8EB
:103B00005130032618E03A4629462046FFF75CFE6E
:103B100008B120236365A36833B901932368DA6889
:103B200001929B680193019B636D2BB9012384F87B
:103B30005130002600E00226002384F85030304641
:103B400003B0BDE8F0830226F9E72DE9F04383B026
:103B50001F460A9D90F85030012B00F01681044654
:103B600088469146012380F85030FEF795FA0646C4
:103B700094F85130DBB26268012B0AD0B2F5827F33
:103B800040F0F080A268002A40F0F380042B40F05F
:103B9000F280B8F1000F00F0F080B9F1000F00F0F2
:103BA000EE80002F00F0ED8094F85130DBB2042B52
:103BB00002D0052384F8513000236365C4F838909F
:103BC000E787A787C4F83080E786A7862364636405
:103BD00023681A6812F0400F03D11A6842F04002BD
:103BE0001A60E368B3F5006F11D063680BB1012F61
:103BF0000BD1226B236812781A73236B0133236372
:103C0000E38E9BB2013B9BB2E38601276EE06368C3
:103C10000BB1012F0BD1226B23681288DA60236B62
:103C200002332363E38E9BB2013B9BB2E386012701
:103C30001BE023689A6812F0010F0ED0E28F92B257
:103C40005AB1DA68A36B1A80A36B0233A363E38FC4
:103C50009BB2013B9BB2E3870127FEF71DFA801B55
:103C6000A84202D3B5F1FF3F1ED1E38E9BB21BB930
:103C7000E38F9BB2002B5CD023689A6812F0020F8E
:103C8000D7D0E28E92B2002AD3D0002FD1D0226BAF
:103C90001288DA60236B02332363E38E9BB2013B0D
:103CA0009BB2E3860027C4E7012384F85130032048
:103CB00059E023689A6812F0010F0ED0E28F92B299
:103CC0005AB1DA68A36B1A70A36B0133A363E38F55
:103CD0009BB2013B9BB2E3870127FEF7DDF9831B13
:103CE000AB4202D3B5F1FF3F1ED1EDB1E38E9BB2E3
:103CF00013B9E38F9BB2E3B123689A6812F0020F05
:103D0000D7D0E28E92B2002AD3D0002FD1D0226B2E
:103D100012781A73236B01332363E38E9BB2013B4A
:103D20009BB2E3860027C4E7012384F851300320C7
:103D300019E0324629462046FFF746FD70B9A368D0
:103D400033B901932368DA6801929B680193019B60
:103D5000636DC3B9012384F8513004E02023636507
:103D6000012000E00220002384F8503003B0BDE8B9
:103D7000F0830220F7E70220F5E70120F3E70120B6
:103D8000F1E70120EFE70120EDE70220EEE72DE962
:103D9000F04383B0044690F85160F6B2012E40F033
:103DA000AB80884691461D464368B3F5827F32D08A
:103DB00094F85030012B00F0A780012384F8503094
:103DC000FEF76AF90746B8F1000F00F09680B9F1E6
:103DD000000F00F09280042384F8513000236365C3
:103DE000C4F83880A4F83C90A4F83E902363A386DE
:103DF000E38623646364A368B3F5004F18D0236897
:103E00001A6812F0400F03D11A6842F040021A609B
:103E1000E3680BB343E08368002BC9D1042380F827
:103E20005130009513460A46FFF78FFE064667E0BD
:103E30002268136823F0400313602268136823F498
:103E400080431360DBE7FEF727F9C01BA84202D3CB
:103E5000B5F1FF3F15D1A5B1E38F9BB2002B3CD04C
:103E600023689A6812F0010FEDD0A26B1B7B1370D0
:103E7000A36B0133A363E38F9BB2013B9BB2E38748
:103E8000EAE7012384F85130032636E0FEF704F90F
:103E9000C01BA84202D3B5F1FF3F19D1C5B1E38FD2
:103EA0009BB2D3B123689A6812F0010FEED0DA68A2
:103EB000A36B1A80A36B0233A363B4F83EC01FFA4E
:103EC0008CFC0CF1FF3C1FFA8CFCA4F83EC0E6E72A
:103ED000012384F8513003260FE03A462946204654
:103EE000FFF7B2FC08B120236365636D2BB9012392
:103EF00084F85130002600E00226002384F8503078
:103F0000304603B0BDE8F0830226F9E710B4036A37
:103F1000046A24F001040462846924F0F00C4CEA81
:103F2000021223F00A030B43826103625DF8044B23
:103F3000704710B4036A046A24F0100404628469B0
:103F400024F4704C4CEA023223F0A00343EA01133C
:103F5000826103625DF8044B7047836823F070034D
:103F60000B4343F0070383607047000090F83D3037
:103F7000DBB2012B32D1022380F83D300368194AAD
:103F8000934220D0B3F1804F1DD0A2F57C429342E2
:103F900019D002F58062934215D002F580629342F7
:103FA00011D002F5784293420DD002F5705293423F
:103FB00009D0A2F59432934205D01A6842F001026A
:103FC0001A60002070479A6802F00702062A07D09C
:103FD0001A6842F001021A60002070470120704701
:103FE000002070470000014090F83D30DBB2012B0B
:103FF00037D1022380F83D300268D36843F00103D3
:10400000D3600368194A934220D0B3F1804F1DD08A
:10401000A2F57C42934219D002F58062934215D0FA
:1040200002F58062934211D002F5784293420DD09E
:1040300002F57052934209D0A2F59432934205D012
:104040001A6842F001021A60002070479A6802F074
:104050000702062A07D01A6842F001021A600020FF
:104060007047012070470020704700BF00000140EA
:10407000704770477047704770B504460368DE6844
:104080001D6915F0020F10D016F0020F0DD06FF061
:1040900002021A610123037703689B6913F0030F7F
:1040A0005ED0FFF7E6FF0023237715F0040F12D050
:1040B00016F0040F0FD023686FF004021A61022378
:1040C000237723689B6913F4407F4FD02046FFF786
:1040D000D0FF0023237715F0080F12D016F0080F39
:1040E0000FD023686FF008021A6104232377236836
:1040F000DB6913F0030F40D02046FFF7BAFF00231F
:10410000237715F0100F12D016F0100F0FD0236880
:104110006FF010021A61082323772368DB6913F418
:10412000407F31D02046FFF7A4FF0023237715F00E
:10413000010F02D016F0010F2DD115F0800F02D023
:1041400016F0800F2FD115F0400F02D016F0400F5F
:1041500031D115F0200F02D016F0200F33D170BDF1
:10416000FFF786FF2046FFF785FF9CE72046FFF715
:104170007FFF2046FFF77EFFABE72046FFF778FF83
:104180002046FFF777FFBAE72046FFF771FF20468A
:10419000FFF770FFC9E723686FF001021A6120463C
:1041A000FCF7CCFDC9E723686FF080021A61204656
:1041B00000F07DF9C7E723686FF040021A612046DE
:1041C000FFF759FFC5E723686FF020021A61204608
:1041D00000F06CF9C3E700000368344A904212D043
:1041E000B0F1804F0FD0A2F57C4290420BD002F587
:1041F0008062904207D002F58062904203D002F5BF
:104200007842904203D123F070034A681343274A4F
:1042100090422AD0B0F1804F27D0A2F57C42904244
:1042200023D002F5806290421FD002F58062904256
:104230001BD002F57842904217D002F5705290429E
:1042400013D002F5806290420FD002F58062904256
:104250000BD0A2F59832904207D002F580629042CE
:1042600003D002F58062904203D123F44073CA6800
:10427000134323F080034A69134303608B68C362CE
:104280000B688362094B984203D003F58063984220
:1042900001D10B69036301234361036913F0010F2B
:1042A00003D0036923F0010303617047000001405C
:1042B00040B310B5044690F83D30F3B1022384F8C2
:1042C0003D30214651F8040BFFF786FF012384F8A7
:1042D000463084F83E3084F83F3084F8403084F82B
:1042E000413084F8423084F8433084F8443084F814
:1042F000453084F83D30002010BD80F83C30FCF79C
:104300002DFFDBE70120704710B4846824F47F4C54
:1043100042EA03220A4342EA0C0282605DF8044B3F
:10432000704790F83C30012B78D010B5044601233B
:1043300080F83C30022380F83D300268936823F413
:104340007F4323F0770393600B68602B4CD029D810
:10435000402B54D00CD9502B22D1CA684968006830
:10436000FFF7D4FD50212068FFF7F7FD002005E09E
:10437000202B0DD009D9302B0AD00120012384F83D
:104380003D30002384F83C3010BD0BB1102B05D11B
:1043900019462068FFF7E1FD0020EFE70120EDE777
:1043A0000120EBE7B3F5805F34D0B3F5005F0CD1AB
:1043B000CB684A6889680068FFF7A6FF226893689F
:1043C00043F4804393600020D8E7702B24D1CB685E
:1043D0004A6889680068FFF797FF2268936843F08E
:1043E000770393600020C9E7CA6849680068FFF74F
:1043F000A0FD60212068FFF7B0FD0020BEE7CA687D
:1044000049680068FFF782FD40212068FFF7A5FD9D
:104410000020B3E70020B1E70120AFE7022070479A
:1044200090F83C30012B3DD010B4012380F83C3093
:10443000022380F83D3003685A689C6822F0700CB3
:104440000A6842EA0C025A600368174A93421AD07B
:10445000B3F1804F17D0A2F57C42934213D002F5FE
:10446000806293420FD002F5806293420BD002F536
:104470007842934207D002F57052934203D0A2F5DE
:104480009432934204D124F080044A6814439C601F
:10449000012380F83D30002380F83C3018465DF859
:1044A000044B70470220704700000140704770477E
:1044B00008B54FF0E0231B6901F0DCFD012800D1B5
:1044C00008BD00F01FFAFBE7EFF305832BB9064B9D
:1044D000186828B901221A6070476FF0050070470C
:1044E0004FF0FF30704700BF700A0020EFF30583E4
:1044F00073B90A4B1B68012B0DD110B50024084B72
:10450000DC77064B02221A6001F012FB204610BD38
:104510006FF0050070474FF0FF307047700A0020C1
:1045200000ED00E0F0B587B000240594EFF30584BA
:1045300074BB68B322B31568936903B918235C1E72
:10454000372C49D8546814F0010F47D156696EB121
:104550004FEA960C94682CB1D7685B2F02D9176983
:1045600007B1C6B92CB14FF0FF340EE04FF0800C0C
:10457000F0E7D4688CB9146994B14FF0FF3404E0CB
:104580001546002418234FF0800C012C0AD0ACB142
:10459000059807B0F0BD0124F7E74FF0FF34F4E7CA
:1045A0000024F2E7146992680292019400930B468A
:1045B0006246294601F04CFA0590E9E705AA019206
:1045C00000930B461FFA8CF2294601F07CFA012871
:1045D000DED000230593DBE70020DAE70020D8E7F0
:1045E00070B582B0EFF30583002B49D10E46144617
:1045F000002849D0884249D34AB1956815B1D3689B
:104600004F2B14D8002D43D1E3680BB139E00023C0
:1046100001280ED073BB314600F004FD054685B37A
:1046200004B124682146284601F020F829E001233E
:10463000EEE7B3B903220021012000F0ACFC0546EF
:10464000002DECD0002EEAD000231A461946284649
:1046500000F006FD0128E2D0284601F031F80025DF
:104660000FE0A368032200920022114600F049FCEB
:104670000546E5E7A268314600F0B1FC0546CEE705
:104680000025284602B070BD0025FAE70025F8E7AE
:104690000025F6E7034B0360034B0B608023136098
:1046A000704700BF140A002014080020034B036069
:1046B000034B0B604FF4807313607047740E00203F
:1046C000740A002000F1080343604FF0FF3282605B
:1046D000C3600361002303607047002303617047D8
:1046E00043684B609A688A6051609960086103680A
:1046F00001330360704730B40D68B5F1FF3F11D04E
:1047000000F108031C465B681A68AA42FAD963687C
:104710004B6099608C6061600861036801330360DD
:1047200030BC70470469F2E70369416882688A60B7
:10473000416851605A68824206D0002202611A68BC
:10474000013A1A601868704782685A60F5E70000FD
:1047500082B0002301930D4B1B68B3F1FF3F08D0DB
:104760004FF0500383F31188BFF36F8FBFF34F8F68
:10477000FEE74FF0500383F31188BFF36F8FBFF351
:104780004F8F019B002BFCD002B070470C00002023
:1047900008480068006880F308884FF0000080F344
:1047A000148862B661B6BFF34F8FBFF36F8F00DF1F
:1047B00000BF000008ED00E0DFF80C00016841F4E4
:1047C000700101607047000088ED00E04FF08073D9
:1047D00040F8043C21F0010140F8081C054B40F86A
:1047E0000C3C40F8202C6FF0020340F8243C443885
:1047F000704700BF514700080000000000000000A3
:10480000074B19680868B0E8F04F80F30988BFF3D8
:104810006F8F4FF0000080F311887047AFF3008076
:10482000384B00204FF0500383F31188BFF36F8F94
:10483000BFF34F8F0B4A136801331360012B00D075
:1048400070474FF0E023D3F8043D13F0FF0FF7D08B
:104850004FF0500383F31188BFF36F8FBFF34F8F77
:10486000FEE700BF0C000020094B1B6843B94FF066
:10487000500383F31188BFF36F8FBFF34F8FFEE7B1
:10488000013B034A13600BB983F31188704700BFE3
:104890000C000020000000000000000000000000EC
:1048A000EFF30980BFF36F8F154B1A681EF0100FDE
:1048B00008BF20ED108A20E9F04F10602DE90900B3
:1048C0004FF0500080F31188BFF34F8FBFF36F8F0D
:1048D00001F0B8FA4FF0000080F3118809BC1968A4
:1048E0000868B0E8F04F1EF0100F08BFB0EC108A57
:1048F00080F30988BFF36F8F704700BFAFF300806C
:10490000384B002008B54FF0500383F31188BFF3F4
:104910006F8FBFF34F8F01F067F928B14FF0E0239D
:104920004FF08052C3F8042D002383F3118808BD93
:104930004FF0E022002313619361054B1B6805498A
:10494000A1FB03139B09013B5361072313617047CC
:1049500000000020D34D62104FF0E023D3F8002D6B
:104960003D4B9A421CD04FF0E023D3F8002D3B4B37
:104970009A421ED030B583B0394B1A78D2B2019228
:10498000FF221A701B78DBB28DF803309DF80330DC
:1049900003F05003334A1370334B07221A601BE0B5
:1049A0004FF0500383F31188BFF36F8FBFF34F8F26
:1049B000FEE74FF0500383F31188BFF36F8FBFF30F
:1049C0004F8FFEE7284A1368013B13609DF80330C0
:1049D0005B00DBB28DF803309DF8033013F0800FDD
:1049E000F0D1214B1B68032B08D04FF0500383F309
:1049F0001188BFF36F8FBFF34F8FFEE71B021A4A78
:104A0000136003F4E0631360019BDBB2144A13707C
:104A10004FF0E024D4F8203D43F47003C4F8203D67
:104A2000D4F8203D43F07043C4F8203DFFF780FFE9
:104A300000250E4B1D60FFF7BFFED4F8343F43F056
:104A40004043C4F8343FFFF7A3FE01F0FBF9FFF742
:104A50007FFE284603B030BD71C20F4170C20F41C6
:104A600000E400E0D00E0020D40E00200C00002056
:104A7000EFF305830F2B0FD9114A9B5CDBB2114A70
:104A800012789A4208D94FF0500383F31188BFF38C
:104A90006F8FBFF34F8FFEE74FF0E023D3F80C3D4D
:104AA00003F4E063084A1268934208D94FF05003B8
:104AB00083F31188BFF36F8FBFF34F8FFEE770470B
:104AC000F0E300E0D00E0020D40E0020124A12F0D5
:104AD000070F1ED0D11D21F00701C1F570531344FB
:104AE0000A460E480260002141601344083B23F04F
:104AF00007030B48036059601960991A51601360ED
:104B0000084B1960084B1960084B4FF000421A60BF
:104B100070474FF47053E4E7DC0E0020F04A0020A9
:104B2000D80E0020E44A0020E04A0020DC4A0020A1
:104B3000164B1A461B688342FBD3516802EB010CEB
:104B4000844509D0416800EB010C634509D003603E
:104B5000904219D01060704740680144516010467F
:104B6000F0E710B40A4C2468A3420BD05B681944E8
:104B7000416013681B680360904200D010605DF8CC
:104B8000044B70470460F7E7704700BFF04A00200D
:104B9000D80E002070B5054601F018F8364B1B689A
:104BA000A3B1364B1B681D424ED135B1083515F007
:104BB000070F02D025F007050835002D46D0304BF1
:104BC0001B68AB4251D32F4A146804E0FFF77EFF05
:104BD000E7E722461C466368AB4202D22368002BFB
:104BE000F7D1254B1B68A34241D0166808362368CD
:104BF000136063685B1B102B10D9601910F0070F4E
:104C000008D04FF0500383F31188BFF36F8FBFF3C9
:104C10004F8FFEE743606560FFF78AFF62681849BF
:104C20000B689B1A0B60184909688B4201D2164920
:104C30000B60124B1B681343636000232360134A0D
:104C400013680133136002E0002600E0002601F043
:104C500057F816F0070F0CD04FF0500383F311886C
:104C6000BFF36F8FBFF34F8FFEE70026EFE70026FD
:104C7000EDE7304670BD00BFD80E0020DC4A0020B2
:104C8000E04A0020F04A0020E44A0020E84A0020E0
:104C9000002834D038B50446A0F1080550F8043C8B
:104CA000174A1268134208D14FF0500383F311885A
:104CB000BFF36F8FBFF34F8FFEE750F8081C41B171
:104CC0004FF0500383F31188BFF36F8FBFF34F8F03
:104CD000FEE723EA020340F8043C00F077FF54F8B3
:104CE000041C084A13680B4413602846FFF720FF92
:104CF000054A13680133136001F002F838BD7047AC
:104D0000DC4A0020E04A0020EC4A00200346406ACA
:104D100018B11B6B1868C0F13800704710B5044615
:104D2000FFF780FDA26BE36B9A4204D00024FFF7EB
:104D30009BFD204610BD0124F9E710B50446FFF79E
:104D400071FDA36B23B90124FFF78EFD204610BD32
:104D50000024F9E770B504461546866B026C5AB913
:104D600003681BB100200136A66370BD806801F0A6
:104D7000DDF90023A360F6E76DB94068FBF7AAFBF5
:104D8000226C636813446360A268934219D323685A
:104D900063602846E7E7C068FBF79CFB226C514242
:104DA000E3689B1AE3602268934202D2A3680B4433
:104DB000E360022D01D00020D5E726B1013E00209E
:104DC000D1E72846CFE70020CDE70346026C6AB161
:104DD00010B50846D9681144D9609C68A14201D336
:104DE0001968D960D968FBF775FB10BD704738B5F5
:104DF0000546FFF717FD95F8454064B201E0013C18
:104E000064B2002C0ADD6B6A43B105F1240001F0A5
:104E100097F80028F3D001F027F9F0E7FF2385F891
:104E20004530FFF721FDFFF7FDFC95F8444064B2E3
:104E300001E0013C64B2002C0ADD2B6943B105F1AD
:104E4000100001F07DF80028F3D001F00DF9F0E733
:104E5000FF2385F84430FFF707FD38BD38B5E0B1D2
:104E60000D460446FFF7DEFC2368E26B216C01FB74
:104E70000230A0600020A0636360013A02FB0133AE
:104E8000E360FF2384F8443084F84530FDB923699A
:104E900063B9FFF7E9FC012038BD4FF0500383F3FD
:104EA0001188BFF36F8FBFF34F8FFEE704F110003F
:104EB00001F046F80028ECD04FF0E0234FF080528C
:104EC000C3F8042DBFF34F8FBFF36F8FE1E704F1F9
:104ED0001000FFF7F7FB04F12400FFF7F3FBD8E71E
:104EE00038B51D46049C0B4649B92460E063236431
:104EF00001212046FFF7B2FF84F84C5038BD2260F4
:104F0000F4E740B94FF0500383F31188BFF36F8F7C
:104F1000BFF34F8FFEE710B584B01C46844653B1F3
:104F200092B189B94FF0500383F31188BFF36F8FAB
:104F3000BFF34F8FFEE74FF0500383F31188BFF3A9
:104F40006F8FBFF34F8FFEE76AB150230393039B2C
:104F5000502B13D04FF0500383F31188BFF36F8FA2
:104F6000BFF34F8FFEE70029EFD04FF0500383F3DC
:104F70001188BFF36F8FBFF34F8FFEE7039B0123B1
:104F800084F8463000949DF818306046FFF7A8FF7B
:104F9000204604B010BD40B94FF0500383F3118890
:104FA000BFF36F8FBFF34F8FFEE7F0B583B00D46B1
:104FB0001446064601FB00F05030FFF7EBFD0746B4
:104FC00050B1002380F846300090234600F1500293
:104FD00029463046FFF784FF384603B0F0BD40B99C
:104FE0004FF0500383F31188BFF36F8FBFF34F8FE0
:104FF000FEE710B582B00C46884208D24FF050034D
:1050000083F31188BFF36F8FBFF34F8FFEE7022347
:105010000093134600221146FFF773FF00B184632B
:1050200002B010BD40B94FF0500383F31188BFF3B5
:105030006F8FBFF34F8FFEE710B50C46884208D242
:105040004FF0500383F31188BFF36F8FBFF34F8F7F
:10505000FEE702220021FFF79EFF00B1846310BD2E
:10506000F0B585B0019288B10F461D460446B1B136
:10507000022D20D1E36B012B1DD04FF0500383F3A1
:105080001188BFF36F8FBFF34F8FFEE74FF05003D0
:1050900083F31188BFF36F8FBFF34F8FFEE7036C6D
:1050A000002BE5D04FF0500383F31188BFF36F8FCF
:1050B000BFF34F8FFEE700F0DDFF064658B9019BB6
:1050C000002B48D04FF0500383F31188BFF36F8F4C
:1050D000BFF34F8FFEE700263DE02A4639462046C3
:1050E000FFF738FE636A7BB948B14FF0E0234FF019
:1050F0008052C3F8042DBFF34F8FBFF36F8FFFF7BC
:10510000B3FB012005B0F0BD04F1240000F018FF4E
:105110000028F4D04FF0E0234FF08052C3F8042D64
:10512000BFF34F8FBFF36F8FE9E7FFF79DFB0020C1
:10513000E8E702A800F04AFF012619E0002384F8FE
:10514000443021E0002384F8453023E02046FFF777
:105150004EFE00F0D5FDFFF765FBA26BE36B9A42B4
:10516000BBD3022DB9D0019B002BDED0002EE0D0A6
:10517000FFF77AFB00F02AFDFFF754FB94F8442078
:1051800052B2B2F1FF3FD9D094F8452052B2B2F1F9
:10519000FF3FD7D0FFF768FB01A902A800F022FF6C
:1051A000D8B92046FFF7BAFD0028CFD0019904F105
:1051B000100000F091FE2046FFF719FE00F0A0FD60
:1051C0000028C8D14FF0E0234FF08052C3F8042DDF
:1051D000BFF34F8FBFF36F8FBDE72046FFF707FE8A
:1051E00000F08EFD00208DE72DE9F84390B10F46C9
:1051F00016461C460546B1B1022C20D1EB6B012BA3
:105200001DD04FF0500383F31188BFF36F8FBFF3AE
:105210004F8FFEE74FF0500383F31188BFF36F8F7A
:10522000BFF34F8FFEE7036C002BE5D04FF0500328
:1052300083F31188BFF36F8FBFF34F8FFEE7FFF744
:1052400017FCEFF311894FF0500383F31188BFF37C
:105250006F8FBFF34F8FAA6BEB6B9A4206D3022C72
:1052600004D0002089F31188BDE8F88395F84580C3
:105270004FFA88F8AB6B224639462846FFF76AFD9D
:10528000B8F1FF3F06D008F101035BB285F8453065
:105290000120E7E76B6A0BB90120E3E705F1240081
:1052A00000F04EFE18B126B101203060DAE701208F
:1052B000D8E70120D6E768B170B50C460546036C07
:1052C0008BB14FF0500383F31188BFF36F8FBFF39F
:1052D0004F8FFEE74FF0500383F31188BFF36F8FBA
:1052E000BFF34F8FFEE70368EBB1FFF7C1FBEFF3AE
:1052F00011864FF0500383F31188BFF36F8FBFF314
:105300004F8FAA6BEB6B934226D995F845305BB271
:105310000132AA63B3F1FF3F11D001335BB285F8CC
:105320004530012019E08368002BDED04FF0500398
:1053300083F31188BFF36F8FBFF34F8FFEE76B6A64
:105340000BB9012009E005F1240000F0F9FD38B1A6
:1053500044B10120206000E0002086F3118870BD78
:105360000120FAE70120F8E7F0B585B0019290B18D
:105370000F460446C1B100F07DFE064600BB019B0E
:10538000002B5ED04FF0500383F31188BFF36F8F73
:10539000BFF34F8FFEE74FF0500383F31188BFF345
:1053A0006F8FBFF34F8FFEE7036C002BE3D04FF0FE
:1053B000500383F31188BFF36F8FBFF34F8FFEE766
:1053C00000263EE039462046FFF7FFFC013DA5637D
:1053D000236923B9FFF748FA012005B0F0BD04F1B5
:1053E000100000F0ADFD0028F4D04FF0E0234FF0A6
:1053F0008052C3F8042DBFF34F8FBFF36F8FE9E7DF
:10540000FFF732FA0020E8E702A800F0DFFD0126EE
:1054100021E0002384F8443029E0002384F845305B
:105420002BE02046FFF7E3FC00F06AFC09E0204691
:10543000FFF7DDFC00F064FC2046FFF77EFC00284F
:105440003FD1FFF7EFF9A56B002DBBD1019B002BDE
:10545000D6D0002ED8D0FFF707FA00F0B7FBFFF741
:10546000E1F994F844305BB2B3F1FF3FD1D094F846
:1054700045305BB2B3F1FF3FCFD0FFF7F5F901A99B
:1054800002A800F0AFFD0028D1D12046FFF755FC5F
:105490000028C6D0019904F1240000F01DFD20462B
:1054A000FFF7A5FC00F02CFC0028CAD14FF0E02348
:1054B0004FF08052C3F8042DBFF34F8FBFF36F8FAF
:1054C000BFE7002089E770B584B0019158B1044668
:1054D000036C8BB14FF0500383F31188BFF36F8FD0
:1054E000BFF34F8FFEE74FF0500383F31188BFF3F4
:1054F0006F8FBFF34F8FFEE700F0BCFD054650B93C
:10550000019B5BB14FF0500383F31188BFF36F8FA2
:10551000BFF34F8FFEE70026354655E0064653E0C1
:10552000013BA36323683BB123694BB9FFF79CF9A7
:105530000126304604B070BD00F090FEA060F3E795
:1055400004F1100000F0FCFC0028EFD04FF0E02345
:105550004FF08052C3F8042DBFF34F8FBFF36F8F0E
:10556000E4E746B14FF0500383F31188BFF36F8F28
:10557000BFF34F8FFEE7FFF777F9DAE702A800F0F5
:1055800025FD01252AE0002384F8443032E0002381
:1055900084F8453034E0FFF745F9A06800F07AFD63
:1055A0000646FFF761F93BE02046FFF720FC00F0DC
:1055B000A7FB09E02046FFF71AFC00F0A1FB2046FC
:1055C000FFF7BBFB002842D1FFF72CF9A36B002BA0
:1055D000A6D1019B002BC4D0002DCFD0FFF744F9FA
:1055E00000F0F4FAFFF71EF994F844305BB2B3F11F
:1055F000FF3FC8D094F845305BB2B3F1FF3FC6D04F
:10560000FFF732F901A902A800F0ECFC0028D1D183
:105610002046FFF792FB0028C6D02368002BBAD0A3
:10562000019904F1240000F057FC2046FFF7DFFB4E
:1056300000F066FB0028C7D14FF0E0234FF0805206
:10564000C3F8042DBFF34F8FBFF36F8FBCE70EB9C4
:1056500000266EE7FFF7E6F82046FFF757FB014606
:10566000A06800F0ABFDFFF7FFF8F1E70023072B80
:105670000CD8074A52F833200AB10133F7E7044A3D
:1056800042F8331002EBC30358607047704700BF05
:10569000F84A00200023072B0FD8084A02EBC30268
:1056A0005268824201D00133F5E7044A002142F8F2
:1056B000331002EBC303596070477047F84A00206B
:1056C00038B110B50446FFF7E5FF94F846304BB10A
:1056D00010BD4FF0500383F31188BFF36F8FBFF3FA
:1056E0004F8FFEE72046FFF7D3FAF1E770B5044687
:1056F0000D461646FFF796F894F844305BB2B3F1C6
:10570000FF3F0DD094F845305BB2B3F1FF3F0BD0B3
:10571000FFF7AAF8A36B5BB12046FFF768FB70BDEB
:10572000002384F84430EDE7002384F84530EFE7A8
:105730003246294604F1240000F0E6FBECE70000C5
:10574000084B1B681B6823B9074B4FF0FF321A60E8
:105750007047044B1B68DB68DB685A68024B1A60B1
:10576000704700BF3C4B0020E44F00202DE9F0477C
:1057700080460D4617469946089EDDF824A00A9CEF
:105780009200A521206B00F0C5FF236B07F180423A
:10579000013A03EB820727F00707B5B34FF0000C7F
:1057A000BCF10F0F0BD815F80C2004EB0C0383F899
:1057B000342015F80C3013B10CF1010CF0E7002384
:1057C00084F84330372E00D93726E662E664002598
:1057D0002565201DFEF781FF04F11800FEF77DFF0F
:1057E0002461C6F13806A6616462656584F8585084
:1057F0004A4641463846FEF7E9FF2060BAF1000FFD
:1058000001D0CAF80040BDE8F087002384F83430A6
:10581000D8E7000038B5002407E004EB84029300C9
:105820000E481844FEF74EFF0134372CF5D90C4DC5
:105830002846FEF747FF0B4C2046FEF743FF0A4879
:10584000FEF740FF0948FEF73DFF0948FEF73AFF23
:10585000084B1D60084B1C6038BD00BF444B002046
:10586000B84F0020CC4F0020F04F00201C500020EB
:10587000085000203C4B0020404B002010B504464F
:10588000FEF7D0FF224A136801331360214B1B68D7
:105890005BB1214B1B686BB91E4B1B68DA6AE36A6C
:1058A0009A4207D81B4B1C6004E01A4B1C6013681B
:1058B000012B29D0194A1368013313606364E06A2D
:1058C000174B1B68984201D9154B186000EB8000FC
:1058D000211D144B03EB8000FEF702FFFEF7C4FF0F
:1058E0000D4B1B687BB10B4B1B68DA6AE36A9A426B
:1058F00009D24FF0E0234FF08052C3F8042DBFF3DC
:105900004F8FBFF36F8F10BDFFF784FFD2E700BF4B
:10591000A44F0020384B002004500020B04F00203E
:10592000B44F0020444B002010B5044690F8593085
:1059300063B1012B11D0022B0ED04FF0500383F333
:105940001188BFF36F8FBFF34F8FFEE7006BFFF738
:105950009FF92046FFF79CF910BDFFF799F9FBE787
:105960000F4B1B68D3B110B5FEF75CFF0D4BDB6826
:10597000DC68201DFEF7D8FE0B4A1368013B13605C
:10598000074A1368013B1360FEF76EFF2046FFF7DE
:10599000CBFF034B1B68002BE6D110BD704700BF47
:1059A000A84F00201C500020A44F002008B5FFF78E
:1059B000D7FF074B1B68012BF9D94FF0E0234FF0BD
:1059C0008052C3F8042DBFF34F8FBFF36F8FEEE704
:1059D000444B002070B504460D46174B1E68174B0C
:1059E00018680430FEF7A0FEB4F1FF3F0DD0344438
:1059F000124B1B685C60A64210D9114B18680F4B04
:105A000019680431FEF777FE70BD002DEFD00B4B07
:105A1000196804310B48FEF763FEF5E70A4B186876
:105A2000064B19680431FEF766FE084B1B68A3425B
:105A3000EAD9064B1C60E7E730500020384B0020C5
:105A4000404B0020085000203C4B0020E44F002039
:105A500030B587B00B9C7CB10C9DB5B15C2504952D
:105A6000049D5C2D1AD04FF0500383F31188BFF3CF
:105A70006F8FBFF34F8FFEE74FF0500383F3118812
:105A8000BFF36F8FBFF34F8FFEE74FF0500383F3E9
:105A90001188BFF36F8FBFF34F8FFEE7049D0C9DFE
:105AA0002C63022485F8594000240394029505AC28
:105AB00001940A9C0094FFF759FE0C98FFF7DEFE54
:105AC000059807B030BD2DE9F04385B007468846FC
:105AD00014461E469000FFF75DF800B381465C2037
