:020000040800F2
:1000000000000220250E0008390D00083B0D0008F5
:100010003D0D00083F0D0008410D000800000000E4
:10002000000000000000000000000000C1330008D4
:10003000430D000800000000613400082131000871
:10004000750E0008750E0008750E0008750E000884
:10005000750E0008750E0008450D0008750E0008A5
:10006000750E0008750E0008750E0008750E000864
:10007000750E0008750E0008750E0008750E000854
:10008000750E0008750E0008750E0008750E000844
:10009000750E0008750E0008750E0008750E000834
:1000A000750E0008750E0008750E0008750E000824
:1000B000750E0008750E0008750E0008750E000814
:1000C000750E0008750E0008750E0008750E000804
:1000D000750E0008750E0008750E0008750E0008F4
:1000E000750E0008750E0008750E0008750E0008E4
:1000F000750E0008510D0008750E0008750E0008F9
:10010000750E0008750E0008750E0008750E0008C3
:10011000750E0008750E0008750E0008750E0008B3
:10012000610D0008750E0008750E0008750E0008B8
:10013000750E0008750E0008750E0008750E000893
:10014000750E0008750E0008750E0008750E000883
:10015000750E0008750E0008750E0008750E000873
:10016000750E0008750E0008750E0008750E000863
:10017000750E0008750E0008750E000800000000DE
:08018000750E0008750E000861
:1001900010B5054C237833B9044B13B10448AFF3C1
:1001A00000800123237010BD3C04002000000000EB
:1001B0007C4F000808B5034B1BB103490348AFF35C
:1001C000008008BD00000000400400207C4F0008B3
:1001D00053B94AB9002908BF00281CBF4FF0FF31AE
:1001E0004FF0FF3000F074B9ADF1080C6DE904CEAA
:1001F00000F006F8DDF804E0DDE9022304B0704702
:100200002DE9F047089D04468E46002B4DD18A42C9
:10021000944669D9B2FA82F252B101FA02F3C2F1FC
:10022000200120FA01F10CFA02FC41EA030E94408D
:100230004FEA1C48210CBEFBF8F61FFA8CF708FBAE
:1002400016E341EA034306FB07F199420AD91CEB86
:10025000030306F1FF3080F01F81994240F21C81B8
:10026000023E63445B1AA4B2B3FBF8F008FB103300
:1002700044EA034400FB07F7A7420AD91CEB040435
:1002800000F1FF3380F00A81A74240F20781644405
:10029000023840EA0640E41B00261DB1D44000238A
:1002A000C5E900433146BDE8F0878B4209D9002DEE
:1002B00000F0EF800026C5E9000130463146BDE878
:1002C000F087B3FA83F6002E4AD18B4202D38242E2
:1002D00000F2F980841A61EB030301209E46002D91
:1002E000E0D0C5E9004EDDE702B9FFDEB2FA82F2E6
:1002F000002A40F09280A1EB0C014FEA1C471FFA44
:100300008CFE0126200CB1FBF7F307FB131140EA2A
:1003100001410EFB03F0884208D91CEB010103F1F7
:10032000FF3802D2884200F2CB804346091AA4B2B9
:10033000B1FBF7F007FB101144EA01440EFB00FE8D
:10034000A64508D91CEB040400F1FF3102D2A645F2
:1003500000F2BB800846A4EB0E0440EA03409CE791
:10036000C6F12007B34022FA07FC4CEA030C20FA3E
:1003700007F401FA06F31C43F9404FEA1C4900FA5E
:1003800006F3B1FBF9F8200C1FFA8CFE09FB1811DB
:1003900040EA014108FB0EF0884202FA06F20BD94E
:1003A0001CEB010108F1FF3A80F08880884240F29E
:1003B0008580A8F102086144091AA4B2B1FBF9F0E2
:1003C00009FB101144EA014100FB0EFE8E4508D9DD
:1003D0001CEB010100F1FF346CD28E456AD9023862
:1003E000614440EA0840A0FB0294A1EB0E01A14247
:1003F000C846A64656D353D05DB1B3EB080261EBB5
:100400000E0101FA07F722FA06F3F1401F43C5E98E
:10041000007100263146BDE8F087C2F12003D840C4
:100420000CFA02FC21FA03F3914001434FEA1C4706
:100430001FFA8CFEB3FBF7F007FB10360B0C43EAF8
:10044000064300FB0EF69E4204FA02F408D91CEBA8
:10045000030300F1FF382FD29E422DD902386344A6
:100460009B1B89B2B3FBF7F607FB163341EA034146
:1004700006FB0EF38B4208D91CEB010106F1FF3895
:1004800016D28B4214D9023E6144C91A46EA00468C
:1004900038E72E46284605E70646E3E61846F8E61E
:1004A0004B45A9D2B9EB020864EB0C0E0138A3E767
:1004B0004646EAE7204694E74046D1E7D0467BE748
:1004C000023B614432E7304609E76444023842E7C0
:1004D000704700BF844641EA000313F003036DD167
:1004E000403A41D351F8043B40F8043B51F8043BF7
:1004F00040F8043B51F8043B40F8043B51F8043BFE
:1005000040F8043B51F8043B40F8043B51F8043BED
:1005100040F8043B51F8043B40F8043B51F8043BDD
:1005200040F8043B51F8043B40F8043B51F8043BCD
:1005300040F8043B51F8043B40F8043B51F8043BBD
:1005400040F8043B51F8043B40F8043B51F8043BAD
:1005500040F8043B51F8043B40F8043B51F8043B9D
:1005600040F8043B403ABDD2303211D351F8043B3D
:1005700040F8043B51F8043B40F8043B51F8043B7D
:1005800040F8043B51F8043B40F8043B103AEDD2EC
:100590000C3205D351F8043B40F8043B043AF9D23D
:1005A000043208D0D2071CBF11F8013B00F8013B10
:1005B00001D30B8803806046704700BF082A13D31D
:1005C0008B078DD010F003038AD0C3F10403D21A35
:1005D000DB071CBF11F8013B00F8013B80D331F869
:1005E000023B20F8023B7BE7043AD9D3013A11F8E9
:1005F000013B00F8013BF9D20B7803704B78437054
:100600008B7883706046704700B589B000230593EE
:100610000693079301930293039304932448254A76
:1006200002604FF4803242608360012202610376EF
:1006300080F820304FF08051C1624FF0006181623C
:10064000C3600221C16180F83020436101F016F8D7
:1006500008BB072305934FF4004306930023079339
:1006600005A9134801F0DEF9C0B900230193012365
:100670000293039301A90E4801F02EF888B90123D3
:1006800001930223029301A9094801F025F858B902
:1006900009B05DF804FB00F0ADF9DAE700F0AAF963
:1006A000E3E700F0A7F9EAE700F0A4F9F0E700BFFC
:1006B000580400200020014000B585B000230093BD
:1006C0000193029303931A481A4A02604FF480324E
:1006D0004260836001220261037680F82030C360AB
:1006E0000221C16180F83020436100F0C7FFA8B942
:1006F0000223009301230193029369460C4800F002
:10070000EBFF70B903230093022301936946084865
:1007100000F0E2FF40B905B05DF804FB00F06AF9B3
:10072000E6E700F067F9EDE700F064F9F3E700BFF2
:10073000A00400200021014030B58BB000230593B8
:1007400006930793089309930368324A934204D0AF
:10075000314A93423FD00BB030BD0446002501958D
:100760002E4B5A6C42F480725A645A6C02F48072B6
:100770000192019A02951A6B42F001021A631B6BF7
:1007800003F001030293029B03230593069305A93B
:10079000234801F0D5FB2348234B03604560856067
:1007A000C5604FF4806303614FF4805343614FF49D
:1007B000804383614FF48073C3614FF480330362DD
:1007C000456201F033FA18B9164BA3639C63C2E784
:1007D00000F010F9F8E700210391104B5A6C42F435
:1007E00000725A645A6C02F400720392039A0491E4
:1007F0001A6B42F001021A631B6B03F001030493AE
:10080000049B0C2305930323069305A9044801F0D8
:1008100097FBA0E700200140002101400038024082
:1008200000000240E80400201064024000B583B0DC
:1008300000220192094B196B41F4800119631B6B73
:1008400003F480030193019B0521382001F028F96E
:10085000382001F05DF903B05DF804FB0038024078
:1008600008B5642003F0E4FEFBE7000080B584B027
:1008700002F0B8FD01230293182301934FF6FF7392
:1008800000930023194A19461E2000F0EFFB02F0E6
:10089000CBFD174C182702974FF6FF7601960025DF
:1008A00000950423228832211E2000F00DFC0297BF
:1008B000019600950423628850211E2000F004FC5C
:1008C0000297019600950423A2886E211E2000F055
:1008D000FBFB0297019600950423E2888C211E20E1
:1008E00000F0F2FB012003F0A3FED2E7944F0008D2
:1008F0004805002008B5074A0021074802F04AFCD5
:10090000064B1860064A0021064802F043FC064BDD
:10091000186008BDD84F0008610800080C0A0020C4
:10092000B44F00086D080008AC07002005490A68AC
:10093000054B1A80120C9A804A685A80120CDA8091
:10094000704700BF100A00204805002010B58AB08B
:1009500000240594069407940894099401941D4B6F
:100960001A6B42F080021A631A6B02F08002019245
:10097000019A02941A6B42F001021A631A6B02F098
:1009800001020292029A03941A6B42F004021A6363
:100990001A6B02F004020392039A04941A6B42F059
:1009A00008021A631B6B03F008030493049B0123E2
:1009B00005934FF40413069305A9074801F0C0FA04
:1009C00022460521062001F06BF8062001F0A0F870
:1009D0000AB010BD00380240000C024008B50268A1
:1009E000034B9A4200D008BD00F088FDFBE700BF32
:1009F0000020004072B6FEE700B595B0302200211D
:100A000008A804F0F9F900230393049305930693CF
:100A1000079301931F4A116C41F080511164126CCD
:100A200002F080520192019A02931B4A116841F42C
:100A300080411160126802F480420292029A0222FE
:100A4000089201210B9110210C910E920F93082313
:100A50001093A823119312920423139308A801F072
:100A600077FB98B90F230393022304930023059384
:100A70004FF4A05306934FF480530793052103A826
:100A800001F0B4FD20B915B05DF804FBFFF7B2FF2B
:100A9000FFF7B0FF003802400070004008B500F0DA
:100AA00013FDFFF7A9FFFFF751FFFFF7BFFE00F0AF
:100AB00029F800F047F8FFF7A7FDFFF7FDFD00F06C
:100AC00061F94FF6FF7000F055FB0A4C02222146F7
:100AD000094800F00FFF02222146084800F00AFFF3
:100AE000074802F07BF802F027FBFFF703FF02F054
:100AF00035FBFEE7100A002058040020A004002067
:100B0000100B002008B50D480D4B03604FF48273A5
:100B1000436000238360C360036143614FF400724C
:100B20008261C3610362436283620A23C36201F08C
:100B3000EBFE00B908BDFFF75DFFFBE7180A0020D8
:100B40000030014008B50E480E4B03604FF482732D
:100B5000436000238360C360036143614FF400720C
:100B600082610822C2610362436283620A23C36214
:100B700001F0CAFE00B908BDFFF73CFFFBE700BF6C
:100B8000700A0020003C004000B58BB000230593A4
:100B900006930793089309930368284A934205D064
:100BA000274A934225D00BB05DF804FB0021019148
:100BB000244B5A6C42F480525A645A6C02F48052AC
:100BC0000192019A02911A6B42F001021A631B6BA7
:100BD00003F001030293029BA023059302230693D3
:100BE000032308930523099305A9174801F0A8F9E1
:100BF000D9E700210391134B1A6C42F400421A64A6
:100C00001A6C02F400420392039A04911A6B42F0A8
:100C100004021A631B6B03F004030493049B4FF458
:100C2000E0530593022306930323089306230993B5
:100C300005A9064801F084F9B5E700BF003001407E
:100C4000003C004000380240000002400008024022
:100C500000B583B0002200920D4B596C41F48041E5
:100C60005964596C01F48041009100990192196C0A
:100C700041F0805119641B6C03F080530193019B78
:100C80000F216FF0010000F00BFF03B05DF804FBD3
:100C90000038024030B589B0044600230193214B4F
:100CA0001A6C42F480721A641B6C03F48073019313
:100CB000019B02A903A801F05FFD069BCBB901F0DF
:100CC0004BFD03461848A0FB03239B0C013B174830
:100CD000174A026040F2E732C260436000230361BA
:100CE0008360836102F01CF9054630B1284609B0E3
:100CF00030BD01F031FD4300E4E70C4801F0ACFFEA
:100D000005460028F2D12D2000F002FF0F2C01D95A
:100D10000125EBE7002221462D2000F0C1FE054B06
:100D20001C60E3E70038024083DE1B43C80A002052
:100D30000020004008000020FEE7FEE7FEE7FEE797
:100D4000FEE7704708B5012001F0F4F908BD000086
:100D500008B5024801F0C8FF08BD00BFC80A00205E
:100D600008B5024800F0FEFF08BD00BFE8040020FF
:100D7000034AD2F8883043F47003C2F888307047D1
:100D800000ED00E000B587B00023029303930493C5
:100D90000593009301931548154A0260532242605F
:100DA000836040F2E732C2600361836102F0B8F809
:100DB00098B94FF48053029302A90C4802F0E9F865
:100DC00070B920230093002301936946074802F07D
:100DD0005FF940B907B05DF804FBFFF70BFEE8E7E9
:100DE000FFF708FEEDE7FFF705FEF3E7100B002025
:100DF000000400400268094B9A4200D0704782B05C
:100E000000230193064B1A6C42F002021A641B6C19
:100E100003F002030193019B02B0704700040040FD
:100E200000380240DFF834D0FFF7A2FF0C480D492C
:100E30000D4A002302E0D458C4500433C4188C4235
:100E4000F9D30A4A0A4C002301E013600432A2429B
:100E5000FBD303F0ADFFFFF721FE70470000022037
:100E6000000000203C040020408400083C040020D6
:100E7000B0540020FEE708B500F0F2FA08BD08B54E
:100E800000F002FB08BD10B5044600F0C1FA204690
:100E900000F0E6FA00F0C6FA10BD08B500F0A0FABE
:100EA00008BDF8B507460D4616461C462A20FFF732
:100EB000EAFF3846FFF7E3FF3046FFF7E0FF2B205D
:100EC000FFF7E1FF05F1140080B2FFF7D8FF04F14E
:100ED000140080B2FFF7D3FF2C20FFF7D4FFF8BD3A
:100EE0002DE9F84381460F4615469846BDF8206027
:100EF000013B013A9BB292B2FFF7D3FF08E03046C4
:100F0000FFF7BDFF0134A4B2AC42F8D30137BFB242
:100F1000474501D24C46F7E7BDE8F88310B50B46CC
:100F200014460246FFF7BDFF2046FFF7A8FF10BD9D
:100F30002DE9F04F87B0834603910093BDF8403010
:100F400002939DF8444001949DF84890670814F07E
:100F50000E0318BF012303EB141303FB04F30493E4
:100F6000203AD3B2059300EB540292B263189BB2BD
:100F7000013B013A9BB292B2FFF793FF5E464FF0FE
:100F8000000A554649E0059B03EB4303334A02EB55
:100F9000830313F80A8000241DE0314B059A03EB0C
:100FA000021313F80A80F6E7059B03EB43032D4A6F
:100FB00002EB031313F80A80EDE70298FFF75FFFD7
:100FC0000135EDB2B5FBF7F307FB135313F0FF0345
:100FD0003FD00134E4B2072C1BD8B9F1000F08D17F
:100FE00048FA04F313F0010FE7D00098FFF747FF2A
:100FF000E6E748FA04F313F0010F24D10136B6B244
:10100000A6EB0B03BB42E4D1039B01339BB20393DA
:101010005E460AF1010A1FFA8AFA049B9A451AD21F
:10102000019B0C2BAFD0019B102BB6D0019B182B32
:10103000BAD0019B202B0ED10B4B059A03EB8213E8
:1010400013F80A80A7E7009A03993046FFF766FF76
:10105000D4E71D46DDE707B0BDE8F08F1450000867
:1010600088540008785A0008486C00082DE9F047B9
:1010700084B00446884615461F46BDF830A09DF84A
:1010800034609DF838900DE0CDF808900196CDF8C9
:1010900000A03B4641462046FFF74AFF04EB5604BA
:1010A000A4B201352A78002AEED104B0BDE8F08759
:1010B0000246012002E002FB00F019464B1EDBB2A3
:1010C0000029F8D1704700002DE9F04F87B0804625
:1010D000049117461D46BDF840300593BDF844B055
:1010E0009DF848904FEA590A002634461FE004FB59
:1010F0000A8000230293CDF80490CDF800B0059B40
:101100002022049980B2FFF713FF0EE0303204FB77
:101110000A8000230293CDF80490CDF800B0059B1F
:10112000D2B2049980B2FFF703FF0134E4B2AC42BB
:101130001AD2291BC9B20139C9B20A20FFF7B8FF78
:10114000B7FBF0F00A4AA2FB0032D20802EB82029F
:10115000A0EB4202D2B2002ED8D16B1E9C42D5DA4F
:10116000002AC4D00126D1E707B0BDE8F08F00BF48
:10117000CDCCCCCC10B582B0044600F0CBF800F05A
:1011800033F96420FFF789FE00F038F96420FFF797
:1011900084FE00F08FF96420FFF77FFE1120FFF737
:1011A00072FE7820FFF779FE3620FFF76CFE0020F4
:1011B000FFF761FE3A20FFF766FE0520FFF75BFEB2
:1011C000B220FFF760FE0C20FFF755FE0C20FFF762
:1011D00052FE0020FFF74FFE3320FFF74CFE332076
:1011E000FFF749FEB720FFF74EFE3520FFF743FE1D
:1011F000BB20FFF748FE3220FFF73DFEC220FFF77D
:1012000042FE0120FFF737FEC320FFF73CFE15200A
:10121000FFF731FEC420FFF736FE2020FFF72BFE3C
:10122000C620FFF730FE0F20FFF725FED020FFF786
:101230002AFEA420FFF71FFEA120FFF71CFEE020DE
:10124000FFF721FED020FFF716FE0820FFF713FE60
:101250000E20FFF710FE0920FFF70DFE0920FFF713
:101260000AFE0520FFF707FE3120FFF704FE3320BA
:10127000FFF701FE4820FFF7FEFD1720FFF7FBFDFB
:101280001420FFF7F8FD1520FFF7F5FD3120FFF7DB
:10129000F2FD3420FFF7EFFDE120FFF7F4FDD02051
:1012A000FFF7E9FD0820FFF7E6FD0E20FFF7E3FD5D
:1012B0000920FFF7E0FD0920FFF7DDFD1520FFF70E
:1012C000DAFD3120FFF7D7FD3320FFF7D4FD4820AA
:1012D000FFF7D1FD1720FFF7CEFD1420FFF7CBFD60
:1012E0001520FFF7C8FD3120FFF7C5FD3420FFF7BB
:1012F000C2FD2120FFF7C7FD2920FFF7C4FD0094A0
:101300004FF48C73F02200210846FFF7E9FD02B08C
:1013100010BD00002DE9F04188B000230393049331
:1013200005930693079301932A4A116B41F001013B
:101330001163116B01F00101019101990293136B8B
:1013400043F004031363136B03F004030293029B43
:10135000214F01221021384600F0E4FE1F4D0122EA
:101360001021284600F0DEFE01224021384600F020
:10137000D9FE01222021284600F0D4FE4FF01008AB
:10138000CDF80C800124049405940226069603A946
:10139000384600F0D5FDCDF80C80049405940696EF
:1013A00003A9284600F0CCFD402303930494059440
:1013B000069603A9384600F0C3FD20230393049446
:1013C0000594069603A9284600F0BAFD08B0BDE8CA
:1013D000F08100BF003802400000024000080240D7
:1013E00008B500F09DF808BD08B50022102102489C
:1013F00000F098FE08BD00BF0000024008B50122C1
:101400001021024800F08EFE08BD00BF000002401F
:1014100008B500221021024800F084FE08BD00BF7C
:101420000008024008B501221021024800F07AFEAF
:1014300008BD00BF0008024008B500224021024854
:1014400000F070FE08BD00BF0000024008B5012298
:101450004021024800F066FE08BD00BF00000240C7
:1014600000B583B08DF80700FFF7E6FF0A230122DD
:101470000DF10701034801F0A6FAFFF7E7FF03B0FB
:101480005DF804FB180A002000B583B0030A8DF84C
:1014900004308DF80500FFF7CFFF0A23022201A9CF
:1014A000034801F090FAFFF7D1FF03B05DF804FBA9
:1014B000180A002008B501222021024800F032FE5F
:1014C00008BD00BF0008024008B50B4B1A6842F483
:1014D00000721A601A6842F480621A601A6842F454
:1014E00080721A60032000F0C9FA0520FFF7D2FBD2
:1014F000FFF7AEFB002008BD003C0240034A116824
:10150000034B1B780B441360704700BF580B00203F
:1015100004000020014B1868704700BF580B0020E2
:1015200038B50446FFF7F6FF0546B4F1FF3F02D099
:10153000044B1B781C44FFF7EDFF401BA042FAD37D
:1015400038BD00BF040000204A4B5A6822F44032E4
:101550005A605A6841680A435A600268536823F423
:101560008073536002685368016943EA0123536042
:101570000268536823F040735360026853688168BF
:101580000B4353600268936823F40063936002681E
:101590009368C1680B439360826A374B9A4257D075
:1015A0000268936823F07063936002689368816AAD
:1015B0000B4393600268936823F040539360026882
:1015C0009368C16A0B4393600268936823F0020337
:1015D000936002689368017E43EA4103936090F848
:1015E0002030002B3FD00268536843F400635360FF
:1015F0000268536823F46043536001684B68426A91
:10160000013A43EA42334B600268D36A23F4700321
:10161000D3620168CB6AC269013A43EA0253CB62E2
:101620000268936823F4007393600268936890F8EB
:10163000301043EA412393600268936823F4806387
:10164000936002689368416943EA8123936070471D
:101650000268936823F0706393600268936823F0D4
:1016600040539360B0E70268536823F4006353600B
:10167000CAE700BF002301400100000F38B310B5D6
:101680000446036C43B1236C13F0100F0BD0012000
:10169000002384F83C3010BDFFF74EF8002363644C
:1016A00084F83C30EFE7236C23F4885323F00203E3
:1016B00043F0020323642046FFF746FF00206064E6
:1016C000236C23F0030343F001032364E0E70120CC
:1016D000704770477047000030B482B00023019318
:1016E00090F83C30012B00F0BB80012380F83C30A7
:1016F0000B68092B41D90468E2689BB203EB4303F2
:101700001E3B4FF0070C0CFA03F322EA0303E360DD
:101710000468E2680B8803EB43031E3B8D6805FAFF
:1017200003F31343E3604B68062B3DD80468626BF8
:1017300003EB8303053B4FF01F0C0CFA03F322EA83
:10174000030363630468626B4B6803EB8303053B2D
:10175000B1F800C00CFA03F3134363630268414B12
:101760009A4251D002683F4B9A4256D0002380F8EB
:101770003C30184602B030BC7047046822699BB206
:1017800003EB43034FF0070C0CFA03F322EA0303C5
:101790002361046822690B8803EB43038D6805FA13
:1017A00003F313432361BEE70C2B16D805682A6B9D
:1017B00003EB8303233B1F2404FA03F322EA03030E
:1017C0002B6305682A6B4B6803EB8303233B0C8870
:1017D00004FA03F313432B63C0E70568EA6A03EBDB
:1017E0008303413B1F2404FA03F322EA0303EB6261
:1017F0000568EA6A4B6803EB8303413B0C8804FAF3
:1018000003F31343EB62A9E70B68122BAAD1164A24
:10181000536843F480035360A4E70B68103B012B2B
:10182000A4D8114A536843F4000353600B68102B8B
:101830009CD10E4B1B6802F1467202F52E3202F269
:101840008332A2FB03239B0C03EB83035B00019316
:1018500002E0019B013B0193019B002BF9D185E73D
:10186000022087E700200140002301400000002003
:1018700008B5806B40230364436C43F00403436466
:10188000FFF728FF08BD08B5806BFFF722FF08BDF2
:1018900008B5836B1A6C12F0500F26D11A6C42F403
:1018A00000721A641A68916811F0405F19D1197EAC
:1018B000B9B9D16A11F4700F03D0916811F4806F37
:1018C0000FD1516821F0200151601A6C22F480720E
:1018D0001A641A6C12F4805F03D11A6C42F0010290
:1018E0001A641846FFF722F808BD9B6BDB6C98471B
:1018F000FAE7000010B582B013460022019290F87A
:101900003C20012A7CD00446012280F83C20026859
:10191000906810F0010F13D1906840F001009060C2
:10192000394A1068394AA2FB0020800C00EB4000C5
:10193000019002E001980138019001980028F9D146
:101940002268906810F0010F4FD0206C20F4E06006
:1019500020F0010040F480702064526812F4806F1F
:1019600005D0226C22F4405242F480522264226C50
:1019700012F4805F30D0626C22F0060262640022B2
:1019800084F83C20A26B2248D063A26B21481064EB
:10199000A26B2148D06422686FF0020010602068BA
:1019A000426842F08062426094F83020BAB11B482D
:1019B000426842F4005242600A461949A06B00F0A6
:1019C0009BF923689A6812F0405F1BD19A6842F035
:1019D00080429A60002011E000226264CFE70F4845
:1019E000426822F400524260E6E7236C43F01003A1
:1019F0002364636C43F001036364002002B010BDF4
:101A00000220FBE70020F9E70000002083DE1B43F3
:101A10009118000887180008711800080023014079
:101A20000823014090F83C30012B23D010B401234F
:101A300080F83C30104B5A6822F01F025A605A68F6
:101A40000C6822435A605A6822F440425A605A682D
:101A50004C6822435A605A6822F470625A605A688D
:101A600089680A435A60002380F83C3018465DF8C4
:101A7000044B70470220704700230140074AD36897
:101A800023F4E0631B041B0C000200F4E06003433A
:101A900043F0BF6343F40033D360704700ED00E0D0
:101AA00000B5194BDB68C3F30223C3F1070CBCF18B
:101AB000040F28BF4FF0040C03F1040EBEF1060F13
:101AC00018D9033B4FF0FF3E0EFA0CFC21EA0C0143
:101AD00099400EFA03F322EA0303194300280BDBB3
:101AE0000901C9B200F1604000F5614080F80013BF
:101AF0005DF804FB0023E5E700F00F000901C9B21F
:101B0000024B1954F4E700BF00ED00E014ED00E0D3
:101B1000002807DB00F01F02400901239340024A1E
:101B200042F82030704700BF00E100E030B40568A3
:101B30002C6824F480242C60046863608368402B44
:101B400005D0036899600368DA6030BC70470368A9
:101B50009A600368D960F8E710B40368D9B2103905
:101B60000C4AA2FB014212090B4CA25CC2655F2920
:101B700009D923F47F7323F0030304338365806D55
:101B80005DF8044B704723F47F7323F003038365F0
:101B9000F5E700BFABAAAAAA08840008836A826995
:101BA00092B9012B0AD0022B02D00BB10020704752
:101BB000C36A13F0807F28D100207047C36AB3F155
:101BC000C07F24D000207047B2F5005F09D0022BFF
:101BD00025D9032B25D1C36A13F0807F23D10020A0
:101BE0007047032B03D8DFE803F01404140A002025
:101BF0007047C36A13F0807F0DD100207047C36A1D
:101C0000B3F1C07F09D00020704701207047012048
:101C10007047012070470120704701207047012064
:101C200070470020704701207047000070B50446DF
:101C3000FFF770FC002C5BD00546022384F835309A
:101C4000002384F834302268136823F00103136002
:101C500023681A6812F0010F0AD0FFF75BFC431BE0
:101C6000052BF5D920236365032084F8350070BD6A
:101C70001A68204810406168A2680A43E1680A4374
:101C800021690A4361690A43A1690A43E1690A4378
:101C9000216A0A430243616A04291ED01A60266839
:101CA000756925F00705636A1D43042B07D1A36AF4
:101CB0001D43E36A1BB12046FFF770FF90B97561C1
:101CC0002046FFF749FFE26D3F23934083600020E9
:101CD0006065012384F83530C9E7E16A206B014370
:101CE0000A43DBE740236365012084F83500BEE743
:101CF0000120BCE73F8010F038B50446856D90F8B0
:101D0000340001282BD0012084F8340094F83500E9
:101D1000C0B2012804D0002384F83430022038BD3A
:101D2000022084F83500002060652046FFF7FEFEA3
:101D3000E26D3F239340AB602268136843F01603C3
:101D40001360236C23B12268136843F00803136007
:101D50002268136843F0010313600020DFE70220CC
:101D6000DDE70000F0B583B0044600230193724B19
:101D70001D68724BA3FB0535AD0A876D3E68C26DC9
:101D800008239340334210D003681A6812F0040FFE
:101D90000BD01A6822F004021A60C26D0823934027
:101DA000BB60436D43F001034365E26D0123934043
:101DB000334209D02268526912F0800F04D0BB6010
:101DC000636D43F002036365E26D04239340334285
:101DD00009D02268126812F0020F04D0BB60636D54
:101DE00043F004036365E26D10239340334224D033
:101DF0002268126812F0080F1FD0BB6023681A68AF
:101E000012F4802F0DD01B6813F4002F04D1236C23
:101E10009BB12046984710E0A36C73B120469847C9
:101E20000BE01A6812F4807F03D11A6822F00802CE
:101E30001A60236C0BB120469847E26D2023934033
:101E4000334255D02268126812F0100F50D0BB6098
:101E500094F83530DBB2052B0ED023681A6812F4E3
:101E6000802F33D01B6813F4002F2AD1636C002B12
:101E70003ED0204698473BE02268136823F01603C3
:101E800013602268536923F080035361236CA3B16C
:101E90002268136823F008031360E26D3F23934028
:101EA000BB60012384F83530002384F83430236D7F
:101EB000002B3FD0204698473CE0A36C002BE7D195
:101EC000EBE7E36BA3B12046984711E01A6812F4E0
:101ED000807F09D11A6822F010021A60012384F869
:101EE0003530002384F83430E36B0BB1204698473B
:101EF000636DFBB1636D13F0010F17D0052384F8F8
:101F000035302268136823F001031360019B01330D
:101F10000193AB4204D823681B6813F0010FF5D17D
:101F2000012384F83530002384F83430E36C0BB19E
:101F30002046984703B0F0BD00000020B5814E1B3D
:101F400000230F2B00F2E48070B582B060E085685A
:101F50005E000324B44025EA0405CC68B4402C4359
:101F60008460456825EA02054C68C4F300129A4073
:101F70002A4342605AE0DC08083450F8246003F039
:101F8000070295000F22AA4026EA020E0A69AA401B
:101F900042EA0E0240F824205CE0072200E0002222
:101FA00002FA0EF22A4302345A4D45F824205A4AC6
:101FB00094686FEA0C0224EA0C054E6816F4801F40
:101FC00001D04CEA0405544CA560E46802EA04051B
:101FD0004E6816F4001F01D04CEA04054E4CE56033
:101FE000646802EA04054E6816F4003F01D04CEA2A
:101FF0000405494C6560246822404D6815F4803F13
:1020000001D04CEA0402444C226001330F2B7DD8EE
:1020100001229A400C6804EA020C32EA0404F4D16A
:102020004C6804F00304013C012C90D94A6802F08A
:102030000302032A09D0C4685D000322AA4024EAEF
:1020400002048A68AA402243C2604A6802F003027E
:10205000022A90D004684FEA430E032202FA0EF2DD
:1020600024EA02044A6802F0030202FA0EF2224352
:1020700002604A6812F4403FC7D000220192274A0A
:10208000546C44F480445464526C02F480420192D3
:10209000019A9C08A51C1F4A52F8255003F0030220
:1020A0004FEA820E0F2202FA0EF225EA02051C4ABE
:1020B00090423FF474AF02F5806290421AD002F56C
:1020C0008062904218D002F58062904216D002F5EC
:1020D0008062904214D002F58062904212D002F5E4
:1020E0008062904210D002F5806290423FF455AF7A
:1020F000082255E7012253E7022251E703224FE766
:1021000004224DE705224BE7062249E702B070BDE5
:10211000704700BF00380140003C014000380240D9
:10212000000002400AB18161704709048161704773
:102130007047000008B5054B5B69034200D108BD3C
:10214000024B5861FFF7F4FFF9E700BF003C014084
:10215000002800F0E08170B582B00446036813F0F7
:10216000010F3BD09F4B9B6803F00C03042B2CD03A
:102170009C4B9B6803F00C03082B21D06368B3F5DC
:10218000803F4FD0B3F5A02F52D0964B1A6822F45F
:1021900080321A601A6822F480221A606368002B69
:1021A00050D0FFF7B7F905468E4B1B6813F4003F7C
:1021B00014D1FFF7AFF9401B6428F5D90320B1E132
:1021C000884B5B6813F4800FD8D0864B1B6813F4E0
:1021D000003F03D06368002B00F09F81236813F059
:1021E000020F54D07F4B9B6813F00C0F3ED07D4BF9
:1021F0009B6803F00C03082B33D0E368002B68D0F6
:10220000794B01221A60FFF785F90546754B1B686B
:1022100013F0020F54D1FFF77DF9401B0228F5D9C6
:1022200003207FE16F4A136843F480331360B5E7FE
:102230006C4B1A6842F480221A601A6842F48032A9
:102240001A60ABE7FFF766F90546664B1B6813F4A7
:10225000003FC3D0FFF75EF9401B6428F5D9032087
:1022600060E1604B5B6813F4800FC6D15D4B1B6867
:1022700013F0020F03D0E368012B40F05081594A5C
:10228000136823F0F803216943EAC103136023684C
:1022900013F0080F42D063696BB3534B0122C3F8AC
:1022A000802EFFF737F905464E4B5B6F13F0020F98
:1022B00034D1FFF72FF9401B0228F5D9032031E173
:1022C000484A136823F0F803216943EAC103136005
:1022D000DDE7454B00221A60FFF71CF90546414B2C
:1022E0001B6813F0020FD2D0FFF714F9401B02282D
:1022F000F5D9032016E13C4B0022C3F8802EFFF7EE
:1023000009F90546374B5B6F13F0020F06D0FFF754
:1023100001F9401B0228F5D9032003E1236813F0DB
:10232000040F77D02F4B1B6C13F0805F33D1002349
:1023300001932C4B1A6C42F080521A641B6C03F010
:1023400080530193019B0125284B1B6813F4807F68
:1023500023D0A368012B34D0052B38D0214B1A6F22
:1023600022F001021A671A6F22F004021A67A368AA
:10237000002B3DD0FFF7CEF806461A4B1B6F13F02B
:10238000020F46D1FFF7C6F8801B41F2883398420E
:10239000F3D90320C6E00025D6E7144A136843F4B6
:1023A00080731360FFF7B6F80646104B1B6813F4F2
:1023B000807FCED1FFF7AEF8801B0228F5D903202D
:1023C000B0E0084A136F43F001031367CFE7054BF2
:1023D0001A6F42F004021A671A6F42F001021A677C
:1023E000C5E700BF003802400000474200700040CF
:1023F000FFF790F80646524B1B6F13F0020F08D000
:10240000FFF788F8801B41F288339842F3D9032004
:1024100088E0EDB9A369002B00F08380484A9268F8
:1024200002F00C02082A51D0022B17D0454B002293
:102430001A66FFF76FF80446414B1B6813F0007FE4
:1024400042D0FFF767F8001B0228F5D9032069E0A6
:102450003B4A136C23F080531364DBE7394B0022B3
:102460001A66FFF757F80546354B1B6813F0007FD7
:1024700006D0FFF74FF8401B0228F5D9032051E0A2
:10248000E369226A1343626A43EA8213A26A52082A
:10249000013A43EA0243E26A43EA0263284A53608C
:1024A000284B01221A66FFF735F80446244B1B68B7
:1024B00013F0007F06D1FFF72DF8001B0228F5D995
:1024C00003202FE000202DE000202BE0012B2BD05B
:1024D0001B4B5B6803F48001E269914226D103F053
:1024E0003F02216A8A4223D1616A47F6C0721A40CC
:1024F000B2EB811F1ED103F44031A26A5208013AA7
:10250000B1EB024F18D103F07063E26AB3EB026FD4
:1025100014D1002006E001207047012002E00120D4
:1025200000E0002002B070BD0120FBE70120F9E7C8
:102530000120F7E70120F5E70120F3E70120F1E7AB
:10254000003802400000474208B5254B9B6803F065
:102550000C03042B3FD0082B3FD1214B5A6802F0CB
:102560003F025B6813F4800F12D01D4B5968C1F312
:1025700088111C480023A1FB0001FDF729FE184B20
:102580005B68C3F3014301335B00B0FBF3F025E06C
:10259000134B5968C1F3881C4FEA4C11B1EB0C0086
:1025A0006EEB0E0E4FEA8E1343EA90638101091A17
:1025B00063EB0E03DB0043EA5173C90011EB0C0C13
:1025C00043F10003990200234FEA8C2041EA9C5119
:1025D000FDF7FEFDD3E7034800E0034808BD00BF58
:1025E00000380240001BB7000024F400002800F06F
:1025F0009B8070B50D4604464F4B1B6803F00703E4
:102600008B4208D2CBB24C4A1370136803F0070315
:102610008B4240F08B80236813F0020F17D013F029
:10262000040F04D0454A936843F4E0539360236851
:1026300013F0080F04D0414A936843F46043936059
:102640003E4A936823F0F003A1680B43936023682C
:1026500013F0010F32D06368012B21D09A1E012A9A
:1026600025D9364A126812F0020F61D033498A68C0
:1026700022F0030213438B60FEF74CFF06462F4BFC
:102680009B6803F00C036268B3EB820F16D0FEF771
:1026900041FF801B41F288339842F0D9032042E089
:1026A000264A126812F4003FE0D101203BE0234AA1
:1026B000126812F0007FD9D1012034E01E4B1B6854
:1026C00003F00703AB4207D9EAB21B4B1A701B6831
:1026D00003F00703AB422DD1236813F0040F06D09B
:1026E000164A936823F4E053E1680B439360236830
:1026F00013F0080F07D0114A936823F4604321694F
:1027000043EAC1039360FFF71FFF0C4B9B68C3F3C1
:1027100003130B4AD35CD8400A4B18600A4B186865
:10272000FEF7B8FA002070BD012070470120FAE7DB
:102730000120F8E70120F6E7003C024000380240A3
:10274000FC4F00080000002008000020014B186822
:10275000704700BF0000002008B5FFF7F7FF044BEB
:102760009B68C3F38223034AD35CD84008BD00BFF3
:10277000003802400C5000080F2303600B4B9A688E
:1027800002F0030242609A6802F0F00282609A68E6
:1027900002F4E052C2609B68DB0803F4E05303617B
:1027A000034B1B6803F007030B60704700380240BF
:1027B000003C02402DE9F04782B0054688461746A6
:1027C0001E46FEF7A7FE0A9B1B1A03EB0609FEF73F
:1027D000A1FE82462B4B1B68C3F3CB3309FB03F3EB
:1027E00001932B689C6838EA04030CBF4FF0010C7E
:1027F0004FF0000CBC4540D0B6F1FF3FF1D0FEF7E2
:1028000089FEA0EB0A0048450AD2B9F1000F07D0B3
:10281000019A02B14A46019B013B01939146E0E7D0
:102820002A68536823F0E00353606B68B3F5827F36
:102830000BD0AB6AB3F5005F14D0012385F851309B
:10284000002385F85030032018E0AB68B3F5004F43
:1028500002D0B3F5806FECD12A68136823F04003EF
:102860001360E6E72A68136823F4005313602A68AC
:10287000136843F400531360DFE7002002B0BDE8A3
:10288000F08700BF0000002070B584B004460D46FC
:10289000164600920B4601220221FFF78BFFD0B9AA
:1028A000174B1B68174AA2FB03235B0D4FF47A7288
:1028B00002FB03F303936368B3F5827F11D0039B9C
:1028C0003BB1039B013B039323689B6813F0800F8C
:1028D000F5D104B070BD636D43F020036365032040
:1028E000F7E700962B46002280212046FFF762FF83
:1028F0000028EED0636D43F0200363650320E8E712
:1029000000000020819F5E1600285AD010B50446B2
:10291000436A33B94368B3F5827F05D00023C361AE
:1029200002E00023036143610023A36294F8513065
:10293000002B40D0022384F851302268136823F022
:1029400040031360636803F48273A26802F40442D4
:102950001343E26802F400621343226902F00202A8
:102960001343626902F001021343A26902F4007288
:102970001343E26902F038021343226A02F0800234
:102980001343A26A02F40052216813430B60638B65
:1029900003F00403626A02F01002216813434B60E3
:1029A0002268D36923F40063D361002060650123AA
:1029B00084F8513010BD84F850302046FEF7E4F81A
:1029C000B8E7012070472DE9F04383B01D4690F829
:1029D0005030012B00F0D1800446884691460123F7
:1029E00080F85030FEF796FD074694F85160F6B235
:1029F000012E40F0BA80B8F1000F00F0B780B9F1B5
:102A0000000F00F0B380032384F851300023636586
:102A1000C4F83080A4F83490A4F83690A363A38758
:102A2000E38763642364A368B3F5004F1ED0236873
:102A30001A6812F0400F03D11A6842F040021A607F
:102A4000E368B3F5006F1CD0636813B1B9F1010FEF
:102A500055D1226B236812781A73236B01332363D9
:102A6000E38E9BB2013B9BB2E38648E02268136889
:102A700023F0400313602268136843F4804313601B
:102A8000D5E7636813B1B9F1010F15D1226B236843
:102A90001288DA60236B02332363E38E9BB2013B1F
:102AA0009BB2E38608E0FEF735FDC01BA84202D3C7
:102AB000B5F1FF3F15D1A5B1E38E9BB2002B3CD001
:102AC00023689A6812F0020FEDD0226B1288DA6048
:102AD000236B02332363E38E9BB2013B9BB2E386FD
:102AE000EAE7012384F8513003263FE0FEF712FDA8
:102AF000C01BA84202D3B5F1FF3F19D1C5B1E38E87
:102B00009BB2D3B123689A6812F0020FEED0226B09
:102B100012781A73236B01332363B4F836C01FFA9B
:102B20008CFC0CF1FF3C1FFA8CFCA4F836C0E6E7E5
:102B3000012384F85130032618E03A4629462046FE
:102B4000FFF7A2FE08B120236365A36833B90193A0
:102B50002368DA6801929B680193019B636D2BB92E
:102B6000012384F85130002600E00226002384F877
:102B70005030304603B0BDE8F0830226F9E710B4C8
:102B8000036A046A24F001040462846924F0F00CEE
:102B90004CEA021223F00A030B43826103625DF8E0
:102BA000044B704710B4036A046A24F010040462F2
:102BB000846924F4704C4CEA023223F0A00343EA07
:102BC0000113826103625DF8044B7047836823F050
:102BD00070030B4343F007038360704790F83D3068
:102BE000DBB2012B32D1022380F83D300368194A51
:102BF000934220D0B3F1804F1DD0A2F57C42934286
:102C000019D002F58062934215D002F5806293429A
:102C100011D002F5784293420DD002F570529342E2
:102C200009D0A2F59432934205D01A6842F001020D
:102C30001A60002070479A6802F00702062A07D03F
:102C40001A6842F001021A600020704701207047A4
:102C5000002070470000014090F83D30DBB2012BAE
:102C600037D1022380F83D300268D36843F0010376
:102C7000D3600368194A934220D0B3F1804F1DD02E
:102C8000A2F57C42934219D002F58062934215D09E
:102C900002F58062934211D002F5784293420DD042
:102CA00002F57052934209D0A2F59432934205D0B6
:102CB0001A6842F001021A60002070479A6802F018
:102CC0000702062A07D01A6842F001021A600020A3
:102CD0007047012070470020704700BF000001408E
:102CE000704770477047704770B504460368DE68E8
:102CF0001D6915F0020F10D016F0020F0DD06FF005
:102D000002021A610123037703689B6913F0030F22
:102D10005ED0FFF7E6FF0023237715F0040F12D0F3
:102D200016F0040F0FD023686FF004021A6102231B
:102D3000237723689B6913F4407F4FD02046FFF729
:102D4000D0FF0023237715F0080F12D016F0080FDC
:102D50000FD023686FF008021A61042323772368D9
:102D6000DB6913F0030F40D02046FFF7BAFF0023C2
:102D7000237715F0100F12D016F0100F0FD0236824
:102D80006FF010021A61082323772368DB6913F4BC
:102D9000407F31D02046FFF7A4FF0023237715F0B2
:102DA000010F02D016F0010F2DD115F0800F02D0C7
:102DB00016F0800F2FD115F0400F02D016F0400F03
:102DC00031D115F0200F02D016F0200F33D170BD95
:102DD000FFF786FF2046FFF785FF9CE72046FFF7B9
:102DE0007FFF2046FFF77EFFABE72046FFF778FF27
:102DF0002046FFF777FFBAE72046FFF771FF20462E
:102E0000FFF770FFC9E723686FF001021A612046DF
:102E1000FDF7E4FDC9E723686FF080021A612046E0
:102E200000F07DF9C7E723686FF040021A61204681
:102E3000FFF759FFC5E723686FF020021A612046AB
:102E400000F06CF9C3E700000368344A904212D0E6
:102E5000B0F1804F0FD0A2F57C4290420BD002F52A
:102E60008062904207D002F58062904203D002F562
:102E70007842904203D123F070034A681343274AF3
:102E800090422AD0B0F1804F27D0A2F57C429042E8
:102E900023D002F5806290421FD002F580629042FA
:102EA0001BD002F57842904217D002F57052904242
:102EB00013D002F5806290420FD002F580629042FA
:102EC0000BD0A2F59832904207D002F58062904272
:102ED00003D002F58062904203D123F44073CA68A4
:102EE000134323F080034A69134303608B68C36272
:102EF0000B688362094B984203D003F580639842C4
:102F000001D10B69036301234361036913F0010FCE
:102F100003D0036923F001030361704700000140FF
:102F200040B310B5044690F83D30F3B1022384F865
:102F30003D30214651F8040BFFF786FF012384F84A
:102F4000463084F83E3084F83F3084F8403084F8CE
:102F5000413084F8423084F8433084F8443084F8B7
:102F6000453084F83D30002010BD80F83C30FDF73E
:102F700041FFDBE70120704710B4846824F47F4CE4
:102F800042EA03220A4342EA0C0282605DF8044BE3
:102F9000704790F83C30012B78D010B504460123DF
:102FA00080F83C30022380F83D300268936823F4B7
:102FB0007F4323F0770393600B68602B4CD029D8B4
:102FC000402B54D00CD9502B22D1CA6849680068D4
:102FD000FFF7D5FD50212068FFF7F8FD002005E040
:102FE000202B0DD009D9302B0AD00120012384F8E1
:102FF0003D30002384F83C3010BD0BB1102B05D1BF
:1030000019462068FFF7E2FD0020EFE70120EDE719
:103010000120EBE7B3F5805F34D0B3F5005F0CD14E
:10302000CB684A6889680068FFF7A6FF2268936842
:1030300043F4804393600020D8E7702B24D1CB6801
:103040004A6889680068FFF797FF2268936843F031
:10305000770393600020C9E7CA6849680068FFF7F2
:10306000A1FD60212068FFF7B1FD0020BEE7CA681E
:1030700049680068FFF783FD40212068FFF7A6FD3F
:103080000020B3E70020B1E70120AFE7022070473E
:1030900090F83C30012B3DD010B4012380F83C3037
:1030A000022380F83D3003685A689C6822F0700C57
:1030B0000A6842EA0C025A600368174A93421AD01F
:1030C000B3F1804F17D0A2F57C42934213D002F5A2
:1030D000806293420FD002F5806293420BD002F5DA
:1030E0007842934207D002F57052934203D0A2F582
:1030F0009432934204D124F080044A6814439C60C3
:10310000012380F83D30002380F83C3018465DF8FC
:10311000044B704702207047000001407047704721
:1031200008B54FF0E0231B6901F0C0FB012800D176
:1031300008BD00F0C7F9FBE7EFF305832BB9064B99
:10314000186828B901221A6070476FF005007047AF
:103150004FF0FF30704700BFB80D0020EFF305833C
:1031600073B90A4B1B68012B0DD110B50024084B15
:10317000DC77064B02221A6001F0F6F8204610BDFB
:103180006FF0050070474FF0FF307047B80D00201A
:1031900000ED00E0F0B587B000240594EFF305845E
:1031A00074BB68B322B31568936903B918235C1E16
:1031B000372C49D8546814F0010F47D156696EB1C5
:1031C0004FEA960C94682CB1D7685B2F02D9176927
:1031D00007B1C6B92CB14FF0FF340EE04FF0800CB0
:1031E000F0E7D4688CB9146994B14FF0FF3404E06F
:1031F0001546002418234FF0800C012C0AD0ACB1E6
:10320000059807B0F0BD0124F7E74FF0FF34F4E76D
:103210000024F2E7146992680292019400930B462D
:103220006246294601F030F80590E9E705AA0192C7
:1032300000930B461FFA8CF2294601F060F8012832
:10324000DED000230593DBE70020DAE70020D8E793
:10325000034B0360034B0B6080231360704700BF78
:103260005C0D00205C0B0020034B0360034B0B60E4
:103270004FF4807313607047BC110020BC0D002018
:1032800000F1080343604FF0FF328260C3600361C6
:1032900000230360704700230361704743684B605D
:1032A0009A688A605160996008610368013303601D
:1032B000704730B40D68B5F1FF3F11D000F108033D
:1032C0001C465B681A68AA42FAD963684B60996029
:1032D0008C606160086103680133036030BC704733
:1032E0000469F2E70369416882688A604168516055
:1032F0005A68824206D0002202611A68013A1A60B6
:103300001868704782685A60F5E7000082B00023B1
:1033100001930D4B1B68B3F1FF3F08D04FF05003F2
:1033200083F31188BFF36F8FBFF34F8FFEE74FF02A
:10333000500383F31188BFF36F8FBFF34F8F019B4F
:10334000002BFCD002B070470C0000200848006839
:10335000006880F308884FF0000080F3148862B69C
:1033600061B6BFF34F8FBFF36F8F00DF00BF000068
:1033700008ED00E0DFF80C00016841F47001016025
:103380007047000088ED00E04FF0807340F8043C87
:1033900021F0010140F8081C054B40F80C3C40F8B6
:1033A000202C6FF0020340F8243C4438704700BFE3
:1033B0000D330008000000000000000000000000C5
:1033C000074B19680868B0E8F04F80F30988BFF32D
:1033D0006F8F4FF0000080F311887047AFF30080CB
:1033E000804E00204FF0500383F31188BFF36F8F9E
:1033F000BFF34F8F0B4A136801331360012B00D0CA
:1034000070474FF0E023D3F8043D13F0FF0FF7D0DF
:103410004FF0500383F31188BFF36F8FBFF34F8FCB
:10342000FEE700BF0C000020094B1B6843B94FF0BA
:10343000500383F31188BFF36F8FBFF34F8FFEE705
:10344000013B034A13600BB983F31188704700BF37
:103450000C00002000000000000000000000000040
:10346000EFF30980BFF36F8F154B1A681EF0100F32
:1034700008BF20ED108A20E9F04F10602DE9090007
:103480004FF0500080F31188BFF34F8FBFF36F8F61
:1034900001F0F4F84FF0000080F3118809BC1968BE
:1034A0000868B0E8F04F1EF0100F08BFB0EC108AAB
:1034B00080F30988BFF36F8F704700BFAFF30080C0
:1034C000804E002008B54FF0500383F31188BFF3FE
:1034D0006F8FBFF34F8F00F0A3FF28B14FF0E023B1
:1034E0004FF08052C3F8042D002383F3118808BDE8
:1034F0004FF0E022002313619361054B1B680549DF
:10350000A1FB03139B09013B536107231361704720
:1035100000000020D34D62104FF0E023D3F8002DBF
:103520003D4B9A421CD04FF0E023D3F8002D3B4B8B
:103530009A421ED030B583B0394B1A78D2B201927C
:10354000FF221A701B78DBB28DF803309DF8033030
:1035500003F05003334A1370334B07221A601BE009
:103560004FF0500383F31188BFF36F8FBFF34F8F7A
:10357000FEE74FF0500383F31188BFF36F8FBFF363
:103580004F8FFEE7284A1368013B13609DF8033014
:103590005B00DBB28DF803309DF8033013F0800F31
:1035A000F0D1214B1B68032B08D04FF0500383F35D
:1035B0001188BFF36F8FBFF34F8FFEE71B021A4ACC
:1035C000136003F4E0631360019BDBB2144A1370D1
:1035D0004FF0E024D4F8203D43F47003C4F8203DBC
:1035E000D4F8203D43F07043C4F8203DFFF780FF3E
:1035F00000250E4B1D60FFF7BDFED4F8343F43F0AD
:103600004043C4F8343FFFF7A1FE01F037F8FFF75D
:103610007DFE284603B030BD71C20F4170C20F411C
:1036200000E400E0181200201C1200200C00002012
:10363000EFF305830F2B0FD9114A9B5CDBB2114AC4
:1036400012789A4208D94FF0500383F31188BFF3E0
:103650006F8FBFF34F8FFEE74FF0E023D3F80C3DA1
:1036600003F4E063084A1268934208D94FF050030C
:1036700083F31188BFF36F8FBFF34F8FFEE770475F
:10368000F0E300E0181200201C120020124A12F091
:10369000070F1ED0D11D21F00701C1F5705313444F
:1036A0000A460E480260002141601344083B23F0A3
:1036B00007030B48036059601960991A5160136041
:1036C000084B1960084B1960084B4FF000421A6014
:1036D00070474FF47053E4E724120020384E002066
:1036E000201200202C4E0020284E0020244E0020C6
:1036F000164B1A461B688342FBD3516802EB010C40
:10370000844509D0416800EB010C634509D0036092
:10371000904219D0106070474068014451601046D3
:10372000F0E710B40A4C2468A3420BD05B6819443C
:10373000416013681B680360904200D010605DF820
:10374000044B70470460F7E7704700BF384E002015
:103750002012002070B5054600F054FE364B1B6861
:10376000A3B1364B1B681D424ED135B1083515F05B
:10377000070F02D025F007050835002D46D0304B45
:103780001B68AB4251D32F4A146804E0FFF77EFF59
:10379000E7E722461C466368AB4202D22368002B4F
:1037A000F7D1254B1B68A34241D016680836236821
:1037B000136063685B1B102B10D9601910F0070FA2
:1037C00008D04FF0500383F31188BFF36F8FBFF31E
:1037D0004F8FFEE743606560FFF78AFF6268184914
:1037E0000B689B1A0B60184909688B4201D2164975
:1037F0000B60124B1B681343636000232360134A62
:1038000013680133136002E0002600E0002600F098
:1038100093FE16F0070F0CD04FF0500383F311887E
:10382000BFF36F8FBFF34F8FFEE70026EFE7002651
:10383000EDE7304670BD00BF20120020244E00206E
:10384000284E0020384E00202C4E0020304E002004
:10385000002834D038B50446A0F1080550F8043CDF
:10386000174A1268134208D14FF0500383F31188AE
:10387000BFF36F8FBFF34F8FFEE750F8081C41B1C5
:103880004FF0500383F31188BFF36F8FBFF34F8F57
:10389000FEE723EA020340F8043C00F0B3FD54F8CD
:1038A000041C084A13680B4413602846FFF720FFE6
:1038B000054A13680133136000F03EFE38BD7047BF
:1038C000244E0020284E0020344E002010B504461F
:1038D000FFF788FDA26BE36B9A4204D00024FFF748
:1038E000A3FD204610BD0124F9E710B50446FFF7FB
:1038F00079FDA36B23B90124FFF796FD204610BD87
:103900000024F9E770B504461546866B026C5AB977
:1039100003681BB100200136A66370BD806800F00B
:10392000D5FF0023A360F6E76DB94068FCF7D2FD30
:10393000226C636813446360A268934219D32368BE
:1039400063602846E7E7C068FCF7C4FD226C51427B
:10395000E3689B1AE3602268934202D2A3680B4497
:10396000E360022D01D00020D5E726B1013E002002
:10397000D1E72846CFE70020CDE70346026C6AB1C5
:1039800010B50846D9681144D9609C68A14201D39A
:103990001968D960D968FCF79DFD10BD704738B52E
:1039A0000546FFF71FFD95F8454064B201E0013C74
:1039B00064B2002C0ADD6B6A43B105F1240000F00B
:1039C000DBFE0028F3D000F06BFFF0E7FF2385F863
:1039D0004530FFF729FDFFF705FD95F8444064B237
:1039E00001E0013C64B2002C0ADD2B6943B105F112
:1039F000100000F0C1FE0028F3D000F051FFF0E706
:103A0000FF2385F84430FFF70FFD38BD38B5E0B12E
:103A10000D460446FFF7E6FC2368E26B216C01FBD0
:103A20000230A0600020A0636360013A02FB013312
:103A3000E360FF2384F8443084F84530FDB92369FE
:103A400063B9FFF7F1FC012038BD4FF0500383F359
:103A50001188BFF36F8FBFF34F8FFEE704F11000A3
:103A600000F08AFE0028ECD04FF0E0234FF08052A7
:103A7000C3F8042DBFF34F8FBFF36F8FE1E704F15D
:103A80001000FFF7FDFB04F12400FFF7F9FBD8E776
:103A900038B51D46049C0B4649B92460E063236495
:103AA00001212046FFF7B2FF84F84C5038BD226058
:103AB000F4E740B94FF0500383F31188BFF36F8FE1
:103AC000BFF34F8FFEE710B584B01C46844653B158
:103AD00092B189B94FF0500383F31188BFF36F8F10
:103AE000BFF34F8FFEE74FF0500383F31188BFF30E
:103AF0006F8FBFF34F8FFEE76AB150230393039B91
:103B0000502B13D04FF0500383F31188BFF36F8F06
:103B1000BFF34F8FFEE70029EFD04FF0500383F340
:103B20001188BFF36F8FBFF34F8FFEE7039B012315
:103B300084F8463000949DF818306046FFF7A8FFDF
:103B4000204604B010BDF0B585B0019288B10F4693
:103B50001D460446B1B1022D20D1E36B012B1DD0CF
:103B60004FF0500383F31188BFF36F8FBFF34F8F74
:103B7000FEE74FF0500383F31188BFF36F8FBFF35D
:103B80004F8FFEE7036C002BE5D04FF0500383F31B
:103B90001188BFF36F8FBFF34F8FFEE700F086FEF3
:103BA000064658B9019B002B48D04FF0500383F3D1
:103BB0001188BFF36F8FBFF34F8FFEE700263DE004
:103BC0002A4639462046FFF79DFE636A7BB948B115
:103BD0004FF0E0234FF08052C3F8042DBFF34F8F16
:103BE000BFF36F8FFFF720FC012005B0F0BD04F19B
:103BF000240000F0C1FD0028F4D04FF0E0234FF086
:103C00008052C3F8042DBFF34F8FBFF36F8FE9E7E6
:103C1000FFF70AFC0020E8E702A800F0F3FD012608
:103C200019E0002384F8443021E0002384F8453073
:103C300023E02046FFF7B3FE00F07EFCFFF7D2FB47
:103C4000A26BE36B9A42BBD3022DB9D0019B002B30
:103C5000DED0002EE0D0FFF7E7FB00F0D3FBFFF74C
:103C6000C1FB94F8442052B2B2F1FF3FD9D094F88E
:103C7000452052B2B2F1FF3FD7D0FFF7D5FB01A9E3
:103C800002A800F0CBFDD8B92046FFF71FFE0028A0
:103C9000CFD0019904F1100000F03AFD2046FFF763
:103CA0007EFE00F049FC0028C8D14FF0E0234FF021
:103CB0008052C3F8042DBFF34F8FBFF36F8FBDE762
:103CC0002046FFF76CFE00F037FC00208DE72DE961
:103CD000F84390B10F4616461C460546B1B1022C7A
:103CE00020D1EB6B012B1DD04FF0500383F31188D3
:103CF000BFF36F8FBFF34F8FFEE74FF0500383F397
:103D00001188BFF36F8FBFF34F8FFEE7036C002B5B
:103D1000E5D04FF0500383F31188BFF36F8FBFF3EB
:103D20004F8FFEE7FFF784FCEFF311894FF050034C
:103D300083F31188BFF36F8FBFF34F8FAA6BEB6BC9
:103D40009A4206D3022C04D0002089F31188BDE8E2
:103D5000F88395F845804FFA88F8AB6B22463946D0
:103D60002846FFF7CFFDB8F1FF3F06D008F1010369
:103D70005BB285F845300120E7E76B6A0BB901209B
:103D8000E3E705F1240000F0F7FC18B126B10120AB
:103D90003060DAE70120D8E70120D6E7F0B585B03A
:103DA000019290B10F460446C1B100F07FFD064676
:103DB00000BB019B002B5ED04FF0500383F31188B2
:103DC000BFF36F8FBFF34F8FFEE74FF0500383F3C6
:103DD0001188BFF36F8FBFF34F8FFEE7036C002B8B
:103DE000E3D04FF0500383F31188BFF36F8FBFF31D
:103DF0004F8FFEE700263EE039462046FFF7BDFD27
:103E0000013DA563236923B9FFF70EFB012005B02F
:103E1000F0BD04F1100000F0AFFC0028F4D04FF02A
:103E2000E0234FF08052C3F8042DBFF34F8FBFF350
:103E30006F8FE9E7FFF7F8FA0020E8E702A800F043
:103E4000E1FC012621E0002384F8443029E000232E
:103E500084F845302BE02046FFF7A1FD00F06CFB15
:103E600009E02046FFF79BFD00F066FB2046FFF7C8
:103E70003CFD00283FD1FFF7B5FAA56B002DBBD163
:103E8000019B002BD6D0002ED8D0FFF7CDFA00F042
:103E9000B9FAFFF7A7FA94F844305BB2B3F1FF3FE9
:103EA000D1D094F845305BB2B3F1FF3FCFD0FFF7EC
:103EB000BBFA01A902A800F0B1FC0028D1D120462C
:103EC000FFF713FD0028C6D0019904F1240000F08B
:103ED0001FFC2046FFF763FD00F02EFB0028CAD12F
:103EE0004FF0E0234FF08052C3F8042DBFF34F8F03
:103EF000BFF36F8FBFE7002089E700000023072B87
:103F00000CD8074A52F833200AB10133F7E7044AC4
:103F100042F8331002EBC30358607047704700BF8C
:103F2000404E002070B504460D461646FFF75AFA7B
:103F300094F844305BB2B3F1FF3F0DD094F84530B4
:103F40005BB2B3F1FF3F0BD0FFF76EFAA36B5BB12F
:103F50002046FFF724FD70BD002384F84430EDE7D0
:103F6000002384F84530EFE73246294604F1240067
:103F700000F0E6FBECE70000084B1B681B6823B968
:103F8000074B4FF0FF321A607047044B1B68DB6829
:103F9000DB685A68024B1A60704700BF844E0020ED
:103FA0002C5300202DE9F04780460D4617469946D0
:103FB000089EDDF824A00A9C9200A521206B00F049
:103FC0001BFF236B07F18042013A03EB820727F0C6
:103FD0000707B5B34FF0000CBCF10F0F0BD815F865
:103FE0000C2004EB0C0383F8342015F80C3013B1CB
:103FF0000CF1010CF0E7002384F84330372E00D990
:104000003726E662E66400252565201DFFF743F9A3
:1040100004F11800FFF73FF92461C6F13806A661E4
:104020006462656584F858504A4641463846FFF751
:10403000ABF92060BAF1000F01D0CAF80040BDE82A
:10404000F087002384F83430D8E7000038B5002426
:1040500007E004EB840293000E481844FFF710F9C0
:104060000134372CF5D90C4D2846FFF709F90B4CD4
:104070002046FFF705F90A48FFF702F90948FFF75C
:10408000FFF80948FFF7FCF8084B1D60084B1C605F
:1040900038BD00BF8C4E0020005300201453002078
:1040A000385300206453002050530020844E0020D9
:1040B000884E002010B50446FFF794F9224A136891
:1040C00001331360214B1B685BB1214B1B686BB93B
:1040D0001E4B1B68DA6AE36A9A4207D81B4B1C60C6
:1040E00004E01A4B1C601368012B29D0194A13688D
:1040F000013313606364E06A174B1B68984201D96F
:10410000154B186000EB8000211D144B03EB800061
:10411000FFF7C4F8FFF788F90D4B1B687BB10B4B19
:104120001B68DA6AE36A9A4209D24FF0E0234FF043
:104130008052C3F8042DBFF34F8FBFF36F8F10BDB4
:10414000FFF784FFD2E700BFEC520020804E002032
:104150004C530020F8520020FC5200208C4E0020CE
:1041600010B5044690F8593063B1012B11D0022BE1
:104170000ED04FF0500383F31188BFF36F8FBFF35E
:104180004F8FFEE7006BFFF763FB2046FFF760FBF6
:1041900010BDFFF75DFBFBE70F4B1B68D3B110B5FC
:1041A000FFF720F90D4BDB68DC68201DFFF79AF85C
:1041B0000B4A1368013B1360074A1368013B136005
:1041C000FFF732F92046FFF7CBFF034B1B68002BAC
:1041D000E6D110BD704700BFF052002064530020AC
:1041E000EC52002008B5FFF7D7FF074B1B68012BE7
:1041F000F9D94FF0E0234FF08052C3F8042DBFF3FC
:104200004F8FBFF36F8FEEE78C4E002070B50446E2
:104210000D46174B1E68174B18680430FFF762F8FD
:10422000B4F1FF3F0DD03444124B1B685C60A642D2
:1042300010D9114B18680F4B19680431FFF739F882
:1042400070BD002DEFD00B4B196804310B48FFF700
:1042500025F8F5E70A4B1868064B19680431FFF793
:1042600028F8084B1B68A342EAD9064B1C60E7E715
:1042700078530020804E0020884E002050530020AC
:10428000844E00202C53002030B587B00B9C7CB1AD
:104290000C9DB5B15C250495049D5C2D1AD04FF0A2
:1042A000500383F31188BFF36F8FBFF34F8FFEE787
:1042B0004FF0500383F31188BFF36F8FBFF34F8F1D
:1042C000FEE74FF0500383F31188BFF36F8FBFF306
:1042D0004F8FFEE7049D0C9D2C63022485F8594006
:1042E00000240394029505AC01940A9C0094FFF706
:1042F00059FE0C98FFF7DEFE059807B030BD2DE99A
:10430000F04385B00746884614461E469000FFF7E6
:1043100021FA00B381465C20FFF71CFA0546B0B1D4
:10432000C0F83090E5B1002385F859300393029529
:104330000D9B01930C9B0093334622464146384621
:10434000FFF730FE2846FFF7B5FE012005E048469E
:10435000FFF77EFAE6E74FF0FF3005B0BDE8F083E7
:104360004FF0FF30F9E7000010B588B00024059445
:10437000069407AA06A905A8FEF76AFF059B029303
:10438000069B019300942346079A18491848FFF7A3
:104390007BFF184B186040B100F04CFB012806D0A1
:1043A000B0F1FF3F18D008B010BD0020F6E74FF085
:1043B000500383F31188BFF36F8FBFF34F8F0E4B02
:1043C0004FF0FF321A600D4B01221A600C4B002295
:1043D0001A60FFF7A1F8E6E74FF0500383F3118866
:1043E000BFF36F8FBFF34F8FFEE700BF108400084D
:1043F000E5410008285300202C5300204C53002096
:1044000078530020024A136801331360704700BFDD
:10441000F4520020014B1868704700BF7853002009
:10442000F8B53A4B1B68002B69D1394B1D68013533
:104430001D60C5B9374B1B681B6843B14FF0500373
:1044400083F31188BFF36F8FBFF34F8FFEE7314ABD
:104450001168314B186810601960304A13680133D5
:104460001360FFF789FD2E4B1B68AB423DD9002737
:104470002C4B1B68DB6A03EB83039A002A4B9B5887
:10448000012B00D90127294B1B68002B3CD00127A9
:104490003AE001271F4B1B681B6843B31D4B1B6889
:1044A000DB68DC6863689D4226D3261D3046FEF734
:1044B00019FFA36A1BB104F11800FEF713FFE36AAA
:1044C0001B4A1268934201D9194A136003EB830314
:1044D0009A00314614481044FEF7E0FEE26A114BA0
:1044E0001B68DB6A9A42D4D2D4E70027D2E70C4B90
:1044F0004FF0FF321A60BBE7094A1360B8E70D4A74
:1045000013680133136000273846F8BDF4520020C9
:1045100078530020844E0020884E00203053002025
:104520002C530020804E00208C4E00207C53002015
:10453000FC5200203453002038B5354B1B6843B97A
:104540004FF0500383F31188BFF36F8FBFF34F8F8A
:10455000FEE7FEF747FF2E4B1A68013A1A601B6808
:10456000002B4FD12B4B1B680BB900244BE00024D0
:10457000294B1B681BB3284BDB68DC6804F118006F
:10458000FEF7B0FE251D2846FEF7ACFEE06A234B81
:104590001B68984201D9214B186000EB8000294626
:1045A0001F4B03EB8000FEF779FEE26A1D4B1B6890
:1045B000DB6A9A42DCD31C4B01221A60D8E70CB1AB
:1045C000FFF7DAFC194B1C6884B9174B1C68D4B18F
:1045D0004FF0E0234FF08052C3F8042DBFF34F8F0C
:1045E000BFF36F8F01240EE0013C07D0FFF718FFE7
:1045F0000028F9D00C4B01221A60F5E70B4B002282
:104600001A60E2E70024FEF70FFF204638BD00BF26
:10461000F4520020EC52002038530020FC520020BD
:104620008C4E0020804E00207C530020345300200C
:1046300010B5A8B10446104B1B6843B14FF05003AE
:1046400083F31188BFF36F8FBFF34F8FFEE7FFF740
:10465000D9FE00212046FFF7D9FDFFF76DFF48B9CD
:104660004FF0E0234FF08052C3F8042DBFF34F8F7B
:10467000BFF36F8F10BD00BFF45200201F4B1B68AB
:104680001BB11F4B01221A6070471D4B00221A609C
:104690001C4B1B6803EB83018A001B498A585AB9DB
:1046A0000BB1013BF6E74FF0500383F31188BFF3E2
:1046B0006F8FBFF34F8FFEE703EB830082000A4446
:1046C00050684068506003EB830C4FEA8C0208325C
:1046D000114488420BD003EB830291000A4A0A443A
:1046E0005268D168094A1160064A136070474068F1
:1046F00062469100044A0A445060ECE7F4520020FC
:104700007C530020FC5200208C4E0020804E002064
:1047100058B110B50C46094A11681831FEF7C9FDA9
:1047200001212046FFF772FD10BD4FF0500383F3C7
:104730001188BFF36F8FBFF34F8FFEE7804E0020CD
:1047400038B570B10D4614460A4A11681831FEF7A3
:10475000A5FD0CB14FF0FF3521462846FFF756FD69
:1047600038BD4FF0500383F31188BFF36F8FBFF351
:104770004F8FFEE7804E002038B5C368DC6824B355
:1047800004F118052846FEF7ADFD184B1B682BBB3E
:10479000251D2846FEF7A6FDE06A154B1B689842CA
:1047A00001D9134B186000EB80002946114B03EB35
:1047B0008000FEF773FDE26A0F4B1B68DB6A9A42CA
:1047C00011D901200D4B186038BD4FF0500383F311
:1047D0001188BFF36F8FBFF34F8FFEE7294608485C
:1047E000FEF75CFDE7E70020EEE700BFF452002093
:1047F000FC5200208C4E0020804E00207C53002074
:1048000038530020034B1B680360034B1B68436055
:10481000704700BF3053002078530020F8B5C8B16E
:104820000C460546F9B1FEF7DDFD1B4B19686B68B8
:10483000C81A2268B2F1FF3F26D0184E36682F689A
:10484000B74201D08B4224D9824215D8002323607D
:1048500001241AE04FF0500383F31188BFF36F8FE8
:10486000BFF34F8FFEE74FF0500383F31188BFF380
:104870006F8FBFF34F8FFEE75B1A13442360284608
:10488000FFF7C0FF002400E00024FEF7CDFD204626
:10489000F8BD0124F9E700BF785300203053002011
:1048A000014B01221A6070477C530020054B1B68A6
:1048B00033B1054B1B680BB10020704702207047D5
:1048C000012070474C530020F452002000283BD0B8
:1048D00038B504461E4B1B68834208D04FF0500386
:1048E00083F31188BFF36F8FBFF34F8FFEE7036D24
:1048F00043B94FF0500383F31188BFF36F8FBFF3B9
:104900004F8FFEE7013B0365C16AC26C91421DD027
:104910000BB1002038BD051D2846FEF7E3FCE06C16
:10492000E062C0F13803A3610A4B1B68984201D9C9
:10493000084B186000EB80002946074B03EB800012
:10494000FEF7ACFC0120E5E7002070470020E1E71E
:10495000804E0020FC5200208C4E0020064B1A682E
:1049600013682BB90123036023B9D3681868704713
:104970000023F8E7002070478053002008B541600D
:10498000006191420CD8D21A83699A4201D3012066
:1049900008BD011D094B1868FEF78BFC0020F7E7E6
:1049A0009A4201D2994206D2011D054B1868FEF7C2
:1049B00080FC0020ECE70120EAE700BF84530020E0
:1049C0008053002030B583B0FEF70CFD114B1B68FF
:1049D0001BB1FEF729FD03B030BD0F4D2846FEF791
:1049E0004FFC0E4C2046FEF74BFC0D4B1D600D4B53
:1049F0001C60002300930C4B0C4A10210A20FFF787
:104A000058F8044B18600028E3D00949FFF776FAFC
:104A1000DFE700BFA4540020285400203C540020AD
:104A200080530020845300205454002088530020D9
:104A30001884000810B588B0FFF7C4FF124B1B683C
:104A4000CBB100240594069407AA06A905A8FEF791
:104A50000BFC059B0293069B0193022300932346C4
:104A6000079A0A490A48FFF70FFC0A4B186010B171
:104A7000012008B010BD4FF0500383F31188BFF33D
:104A80006F8FBFF34F8FFEE7A454002020840008EF
:104A9000994D0008A8540020B8B19C460346184818
:104AA000006858B300B585B00091019202930529C2
:104AB0001CDCFFF7FBFE022810D000231A466946D3
:104AC0000F480068FFF73FF815E04FF0500383F3FD
:104AD0001188BFF36F8FBFF34F8FFEE70023069A55
:104AE000694607480068FFF72EF804E00023624695
:104AF0006946FFF7ECF805B05DF804FB002070474D
:104B0000A454002070B582B01B4B1B681A6862B3B6
:104B1000DB681E68DC68251D2846FEF7E3FB236A78
:104B20002046984794F8283013F0040FECD0A3697E
:104B300033449E4207D26360246129460E4B1868B5
:104B4000FEF7B7FBE0E7002100910B463246204616
:104B5000FFF7A2FF0028D7D14FF0500383F311884D
:104B6000BFF36F8FBFF34F8FFEE7044A106802490F
:104B70000860136002B070BD805300208453002091
:104B800038B50546FFF746FC0446074B1B688342D1
:104B900005D800232B60044B1C60204638BDFFF76E
:104BA000B1FF01232B60F6E75054002070B582B0AE
:104BB00006460D4617490968C968CC68201DFEF7EE
:104BC00091FB94F828C01CF0040F08D12CF0010CC4
:104BD00084F828C0236A2046984702B070BDA169B6
:104BE00033462A4631442046FFF7C8FE0028F1D05C
:104BF000002100910B4632462046FFF74DFF00286A
:104C0000E8D14FF0500383F31188BFF36F8FBFF3E8
:104C10004F8FFEE78053002070B582B006460C46E9
:104C2000FFF7F0FB01A8FFF7ABFF019B33BB054685
:104C30000CB9B04219D224B1124A12681268DAB91A
:104C400001242246711B104B1868FFF76BF9FFF720
:104C500073FCA8B94FF0E0234FF08052C3F8042D45
:104C6000BFF34F8FBFF36F8F0AE0FFF765FC294654
:104C70003046FFF79BFF03E01C46E2E7FFF75CFCD2
:104C800002B070BD84530020A454002010B588B039
:104C900002E0049B002B0FDA002204A93D4B1868A8
:104CA000FFF77CF8002873D0049B002BF1DA0799FA
:104CB0000698059B9847ECE7069C636913B1201D95
:104CC000FEF710FB03A8FFF75BFF049B092BE3D85B
:104CD000DFE803F00505053037500505303794F857
:104CE000283043F0010384F82830059BA16902466F
:104CF00019442046FFF742FE0028CDD0236A204603
:104D0000984794F8283013F0040FC5D0A269002109
:104D100000910B46059802442046FFF7BDFE00288F
:104D2000BAD14FF0500383F31188BFF36F8FBFF3F5
:104D30004F8FFEE794F8283023F0010384F82830E1
:104D4000AAE794F8283043F0010384F82830059945
:104D5000A16131B10346024601442046FFF70EFE31
:104D60009AE74FF0500383F31188BFF36F8FBFF3BF
:104D70004F8FFEE794F8283013F0020F04D023F091
:104D8000010384F8283087E72046FEF761FD83E7BA
:104D900008B010BDA454002000B583B001A8FFF7EF
:104DA000DDFD0199FFF738FFFFF770FFF6E7000020
:104DB00070B50D4E0D4D761BB61006D0002455F87B
:104DC000043B01349847A642F9D1094E094D761BA0
:104DD00000F0D4F8B61006D0002455F8043B013496
:104DE0009847A642F9D170BD348400083484000885
:104DF0003C84000834840008830730B548D0541E32
:104E0000002A3FD0CAB2034601E0013C3AD303F87E
:104E1000012B9D07F9D1032C2DD9CDB245EA0525EB
:104E20000F2C45EA054536D9A4F1100222F00F0CEB
:104E300003F1200EE6444FEA121C03F1100242E98E
:104E4000045542E9025510327245F8D10CF10102C5
:104E500014F00C0F03EB021204F00F0C13D0ACF1A2
:104E6000040323F003030433134442F8045B934226
:104E7000FBD10CF003042CB1CAB21C4403F8012B83
:104E80009C42FBD130BD64461346002CF4D1F9E7B7
:104E900003461446BFE71A46A446E0E7024B13B1A7
:104EA000024800F005B8704700000000BD4E000841
:104EB000002301461A46184600F01AB838B5084BC8
:104EC000084D5B1B9C1007D0043B1D44013C55F86A
:104ED00004399847002CF9D1BDE8384000F054B8A7
:104EE000408400083C840008704700BF704700BF42
:104EF0002DE9F047DFF880A00646DAF80000984672
:104F00000F469146FFF7F0FF1A4B1B68D3F8484154
:104F100024B365681F2D26DC5EB96B1C0235DAF8F8
:104F20000000636044F82570FFF7E0FF0020BDE853
:104F3000F08704EB85010123C1F88890D4F888211B
:104F4000AB401A43022EC4F88821C1F80881E4D18D
:104F5000D4F88C211343C4F88C31DEE703F5A67432
:104F6000C3F84841D5E7DAF80000FFF7BFFF4FF07C
:104F7000FF30DCE72884000838040020F8B500BFC3
:104F8000F8BC08BC9E467047F8B500BFF8BC08BC2A
:044F90009E46704782
:104F94004C434420646973706C61792066696E6562
:104FA400000000006D61696E000000006C63640025
:104FB400B04F000800000000500700205C00000013
:104FC400500500200002000008000000000000005E
:104FD40000000000A84F000800000000B0090020F5
:104FE4005C000000B0070020000200001800000070
:104FF40000000000000000000000000000000000AD
:10500400010203040607080900000000010203046A
:105014000000000000000000000000000000040484
:10502400040404000004000014140A00000000003A
:105034000000000000000A0A1F0A0A1F0A0A0000F2
:1050440000040E1505060C14150E040000001215BC
:105054000D152E2C2A1200000000040A0A3615151C
:1050640029160000020201000000000000000000F8
:1050740010080804040404040808100002040408C6
:10508400080808080404020000000004150E0E15A8
:105094000400000000000008083E080800000000AA
:1050A40000000000000000000202010000000000F7
:1050B400003F0000000000000000000000000000AD
:1050C400000200000020101008080404020201007D
:1050D40000000E1111111111110E00000000040640
:1050E40004040404040E000000000E11110804025C
:1050F400011F000000000E11100C1010110E000012
:105104000000080C0C0A091F081C000000001F0105
:10511400010F1110110E000000000C12010D1311EB
:10512400110E000000001E1008080404040400000E
:1051340000000E11110E1111110E000000000E11CD
:1051440011191610090600000000000004000000F8
:10515400000400000000000000040000000404003B
:1051640000001008040202040810000000000000FF
:105174003F003F0000000000000002040810100877
:105184000402000000000E111108040400040000D1
:1051940000001C22292D2D1D221C000000000404E7
:1051A4000C0A0A1E1233000000000F12120E121213
:1051B400120F000000001E1101010101110E000078
:1051C40000000F1212121212120F000000001F1220
:1051D4000A0E0A02121F000000001F120A0E0A0221
:1051E4000207000000001C1201013911120C00001A
:1051F40000003312121E12121233000000001F04AA
:1052040004040404041F000000003E080808080801
:1052140008080907000037120A060A1212370000AC
:105224000000070202020202223F000000003B1BB2
:105234001B1B15151535000000003B1216161A1A13
:105244001217000000000E1111111111110E0000AF
:1052540000000F12120E02020207000000000E11DD
:1052640011111117190E180000000F12120E0A1254
:105274001237000000001E1101060810110F000073
:1052840000001F1504040404040E0000000033127F
:1052940012121212120C000000003312120A0A0C2D
:1052A400040400000000151515150E0A0A0A000072
:1052B40000001B0A0A04040A0A1B000000001B0A5F
:1052C4000A0A0404040E000000001F090804040272
:1052D400121F00001C0404040404040404041C003D
:1052E4000002020404040808081010000E0808084C
:1052F4000808080808080E00040A0000000000005E
:105304000000000000000000000000000000003F5A
:105314000204000000000000000000000000000083
:10532400000C121C123C000000030202020E1212B6
:10533400120E000000000000001C1202120C0000FB
:1053440000181010101C1212123C00000000000083
:10535400000C121E021C000000182404041E040485
:10536400041E000000000000003C120C021C221C61
:1053740000030202020E121212370000000404009D
:1053840000060404040E000000080800000C0808CD
:105394000808080700030202021A0A060A1300009A
:1053A4000007040404040404041F000000000000B7
:1053B400000F15151515000000000000000F121253
:1053C4001237000000000000000C1212120C000042
:1053D40000000000000F1212120E0207000000006D
:1053E400001C1212121C103800000000001B0602E0
:1053F4000207000000000000001E020C101E000046
:1054040000000004041E0404041C0000000000004A
:10541400001B1212123C000000000000001B0A0ACC
:1054240004040000000000000015150E0A0A000024
:1054340000000000001B0A040A1B0000000000001A
:10544400003312120C08040300000000001E0804BC
:10545400041E000018080808080C080808081800AA
:1054640008080808080808080808080806040404C6
:1054740004080404040406001609000000000000E7
:105484000000000000000000000000000000000018
:1054940000000000000000000202020202020006F6
:1054A40000000000000000001414000000000000D0
:1054B40000000000000000004848FE24FF12120013
:1054C40000000000000000107C12121C3050523CFE
:1054D40010000000000000001C22A25C40A0900804
:1054E4000000000000000000384444386682C27C9A
:1054F40000000000000000000202000000000000A4
:10550400000000000000000008040402020202047B
:10551400080000000000000002040C080808080449
:10552400020000000000000004370C12000000001C
:10553400000000000000000000002020FC202000EB
:105544000000000000000000000000000000020352
:10555400010000000000000000000000001E000028
:105564000000000000000000000000000000000631
:105574000000000000000000201010080C040202CB
:1055840001000000000000003C6442424242263C0C
:105594000000000000000000181610101010101079
:1055A40000000000000000003C424060100C027E3D
:1055B40000000000000000001C22201C2020221CEF
:1055C40000000000000000002030282422FF2020DA
:1055D40000000000000000003E02023E6040603C0B
:1055E40000000000000000003804023A4642463C35
:1055F40000000000000000007F20201008080404C0
:1056040000000000000000003C42423C4242423C98
:1056140000000000000000003C6242427C40201C6C
:10562400000000000000000000000006000000066A
:105634000000000000000000000000060000040656
:10564400020000000000000000008060180CF00060
:105654000000000000000000000000FC00FC00004E
:1056640000000000000000000000041860C03C00BE
:1056740000000000000000001C2220100C04000C9C
:105684000000000000000000F008E4321292660CF2
:10569400F00000000000000010286844C4FE8603E7
:1056A40000000000000000003E42423E4242423EF2
:1056B4000000000000000000F80C020202028478DE
:1056C40000000000000000007E8202020202827ECE
:1056D40000000000000000007E02023E0202027E82
:1056E40000000000000000003E0202023E0202022E
:1056F4000000000000000000F00C0202C2020CF8DE
:105704000000000000000000020202FE0202020289
:105714000000000000000000020202020202020275
:105724000000000000000000080808080808080736
:105734000000000000000000C262320E1A3262C291
:105744000000000000000000020202020202027EC9
:105754000000000000000000060E0A1A12A2A24275
:105764000000000000000000060E1A322242C2822D
:105774000000000000000000F8040202020204F825
:1057840000000000000000007EC282C23E0202024D
:105794000000000000000000F8040202020204F805
:1057A40000000000000000003E4242621E3262C25D
:1057B40000000000000000007C02020C3040423C6B
:1057C40000000000000000007F080808080808081E
:1057D4000000000000000000828282828282C67C77
:1057E4000000000000000000038686CC4C4878309E
:1057F400000000000000000083C24626242C1C1870
:10580400000000000000000083C66C38386CC683BA
:10581400000000000000000083464C2818101010FF
:105824000000000000000000FFC06030180C06FFFC
:1058340000000000000000001C040404040404042C
:10584400041C000000000000010202040C081010F7
:105854002000000000000000070404040404040401
:1058640004070000000000002050488400000000ED
:105874000000000000000000000000000000000024
:1058840000003F00000000000204000000000000CF
:1058940000000000000000000000003C407C427E4C
:1058A40000000000000000000202027A8682C27E2C
:1058B40000000000000000000000003C0602023C62
:1058C4000000000000000000808080FC8682C6BCCE
:1058D40000000000000000000000003C427E027C4A
:1058E40000000000000000001804041E0404040466
:1058F4000000000000000000000000BCC68286FC1E
:10590400C07C0000000000000202023A464242420B
:105914000000000000000000060000020202020273
:105924000000000000000000060000020202020263
:105934000201000000000000020202621A0E12625C
:105944000000000000000000020202020202020243
:1059540000000000000000000000003AC64242427D
:1059640000000000000000000000003A46424242ED
:1059740000000000000000000000007C8682867C9D
:1059840000000000000000000000007A8682C27E51
:105994000202000000000000000000FC868282FC7D
:1059A40080800000000000000000001A06020202CD
:1059B40000000000000000000000001E020C100E99
:1059C40000000000000000000004041E0404041C85
:1059D4000000000000000000000000424242427C3F
:1059E40000000000000000000000004122361408FE
:1059F40000000000000000000000002152D28E04CC
:105A0400000000000000000000000063361C366344
:105A140000000000000000000000004122341408CF
:105A24000C070000000000000000007F3008067F23
:105A340000000000000000000C040404020404043C
:105A4400040C000000000000020202020202020232
:105A54000202000000000000060404040804040418
:105A640004060000000000000000000038E400000C
:105A74000000000000000000000000000000000022
:105A84000000000000000000000000000000000012
:105A94000000000000000000000000000000000002
:105AA40000000000000000000000000000001800DA
:105AB4001800180018001800180018001800180022
:105AC4001800000000001C001C0000000000000082
:105AD4000000000000000000000000000000D800EA
